:020000040800F2
:10000000E80500200101000825010008270100087B
:10001000290100082B0100082D0100080000000044
:100020000000000000000000000000002F01000898
:1000300031010008000000003301000859070008E2
:1000400037010008370100083701000837010008B0
:1000500037010008370100083701000837010008A0
:100060003701000837010008370100083701000890
:100070003701000837010008370100083701000880
:100080003701000837010008370100083701000870
:100090003701000837010008370100083701000860
:1000A00037010008A9080008370100089D0700086B
:1000B000C1080008D1090008FD0A0008370100083E
:1000C0003701000837010008370100083701000830
:1000D0003701000837010008370100083701000820
:1000E000370100083701000837010008DFF80CD09D
:1000F00000F02CF8004800476D0E0008E8050020CD
:100100000D488047DFF83400016841F4E0210160C8
:10011000BFF34F8FDFF82800DFF8281001600A488E
:1001200000477047FEE7FEE7FEE7FEE7FEE7FEE773
:10013000FEE7FEE7FEE7FEE72301000824ED00E00E
:100140000CED00E00003FA05ED000008064C074D39
:1001500006E0E06840F0010394E807009847103497
:10016000AC42F6D3FFF7C6FF5C1100087C11000813
:100170004FF0000370B406464FF0000001FB03F49B
:1001800004F03F0432F9144036F9135004FB05F42F
:10019000204403F10103402BF0D370BC70470000F2
:1001A00070B50446064AFFF7E3FF80FB0056204681
:1001B000044AFFF7DDFFC0FB0056304670BD00006B
:1001C000DC4000085C4100082DE9F041DFF8C4C0C4
:1001D000314B604503D19C6944F400649C614FF04D
:1001E0008046B04203D1DC6944F00104DC612B4D50
:1001F000A84203D1DC6944F00204DC61284FB84214
:1002000003D1DC6944F00404DC61838943F0010319
:1002100083810F2900D90F21224C4FF0E023604544
:100220000CD12261DFF880804FEA011C88F800C001
:10023000D3F800C14CF0007CC3F800C1B0420DD12E
:100240006261DFF864C00E010CF1030C8CF80060F1
:10025000D3F8006146F08056C3F80061A8420AD185
:10026000A261114E0D01361D3570D3F8005145F0D5
:100270000055C3F80051B8420AD1E26108010A49A9
:10028000491D0870D3F8000140F08040C3F8000118
:10029000BDE8F081002C0140001002400004004045
:1002A000000800402000002019E400E070B5194C5F
:1002B0008320206000256560A560174860600120EC
:1002C00000F048F861680843606014490D600868F0
:1002D00040F002000860206840F480302060206810
:1002E0008003FCD5206840F0807020602068800189
:1002F000FCD5606820F003006060606840F0020098
:100300006060606840F480006060086840F0100041
:10031000086070BD0010024000841D0000200240F3
:1003200000487047001BB7000048704700A24A040D
:100330000549064A884202D00549884201D1104643
:100340007047104670470000002C014000A24A048C
:1003500000340140012804D0B0F5807F03DD012185
:1003600002E000202CE00021802801DD012200E0D5
:1003700000220A44402801DD012100E000210A4456
:10038000102801DD012100E000210A44082801DDD8
:10039000012100E000210A44042801DD012100E0E0
:1003A00000210A44022801DD012100E0002111445E
:1003B000012801DD012000E000200844C01D0001EB
:1003C000702800D100207047F0B53B4E3B4CB04246
:1003D00003D1A66946F00406A661394EB04203D1A6
:1003E000A66946F00806A661364EB04203D1A6695A
:1003F00046F01006A661344EB04203D1A66946F01D
:100400002006A661314EB04203D1A66946F04006EF
:10041000A66100240F2900DD0124692A01D0492AA0
:1004200002D1032B00D10124032B00DD0124692A12
:1004300006D0492A04D06F2A02D04F2A00D00124C6
:10044000692A01D0492A00D100256F2A01D04F2AFC
:1004500000D1012503260222082915DA076802EBDC
:10046000810206FA02FC27EA0C070760076893403E
:100470001F430760026889008E40B2430260026831
:100480008D402A43026015E00839476802EB81027B
:1004900006FA02FC27EA0C074760476893401F43AF
:1004A0004760426889008E40B243426042688D4096
:1004B0002A4342602046F0BD00080140001002407F
:1004C000000C0140001001400014014000180140E0
:1004D00009480161002141628162C1620163112208
:1004E000C2634164182202648164C1644FF6FF72E2
:1004F00042638163704700009001002010B51948E5
:10050000002908D0012908D0022908D0032908D0E1
:1005100005290AD0FEE7012109E0022107E00321B5
:1005200005E04FF08040022101E00F480421C1B1F5
:100530000E4CE060A26000206062FFF7F5FE4FF411
:100540007A71B0FBF1F1E06800F06EFB084A02211D
:10055000E068FFF739FEE068018841F001010180A1
:1005600010BDFEE7002C0140000800409001002073
:10057000510E000870B50D460024FFF7D1FE064667
:10058000FFF7D2FEB0FBF6F16800B0FBF1F00328F4
:1005900001D8032020E00F2802D801240F201BE0FF
:1005A0001B2802D802241B2016E0392802D8032475
:1005B000392011E0532802D8042453200CE06F287E
:1005C00002D805246F2007E08F2802D806248F2048
:1005D00002E0072440F2DF10022C00D2FEE71930BF
:1005E0001E4A484340085060156015F003014FF063
:1005F000F80418D0012919D002291AD0D461C5F302
:100600008101C9B101291AD002291BD064211165C9
:10061000C5F302110023032917D0042917D0052997
:1006200017D0136270BD1F21D161E8E73E21D1616F
:10063000E5E77C21D161E2E704211165E8E70C21BF
:100640001165E5E724211165E2E7136270BD1462CC
:1006500070BD4FF47A71116270BD000090010020EE
:100660002DE9F0410D4604461146204600F0DCFA23
:10067000032707230626681E4FF0040C012D01D026
:10068000022D12D1218BC20007FA02F2914321837D
:10069000228B0CEBC00103FA01F822EA0802228344
:1006A000228B06FA01F10A432283032D01D0042D87
:1006B0000FD1A18BED1EEA009740B943A183A28B15
:1006C0000CEBC5018B409A43A283A28B8E40324330
:1006D000A283228C012101EB800301FA03F39A43E8
:1006E0002284228C800081400A432284064884426E
:1006F00005D1B4F8440040F40040A4F84400A08DB3
:10070000401C80B2BDE8F081002C01407047000021
:1007100070B5104D411ED5E9012301FB0321A961EC
:10072000EC68228D521CB1FBF2F3696AA28C6E6AEE
:100730008E4201D0696AA28C9A4201D9D21A04E091
:10074000A48D2244D21A521C491C6A63A9636861B1
:1007500070BD0000900100200148006800470000C3
:10076000C00000204FF0E0210A6942F004020A6153
:100770006FF07F42904204D30A6922F004020A61BA
:10078000C008486170470000024A11600249000138
:1007900008707047C000002023ED00E070B53B49B1
:1007A00008883B4C82073B4DA4F12006A4F1800051
:1007B00018D50A8822F002020A800178012901D1A5
:1007C000006A804728888107334802D40088208047
:1007D00003E000882188401A3080288880F00200D9
:1007E000288070BD0A88520718D50A8822F00402B2
:1007F0000A804178012901D1406A80472888810612
:10080000264802D40088608003E000886188401A8E
:100810007080288880F02000288070BD0A88120728
:1008200018D50A8822F008020A808178032901D1AC
:10083000806A804728888105194802D40088A080F2
:1008400003E00088A188401AB080288880F40070F6
:10085000288070BD0A88D206FBD50A8822F01002D3
:100860000A80C178012901D1C06A804728888104A3
:100870000C4802D40088E08003E00088E188401A38
:10088000F080288880F40050288070BD102C014032
:10089000A0000020202C0140342C0140382C0140C5
:1008A0003C2C0140402C01400348018821F001010B
:1008B0000180024800690047102C01402000002000
:1008C00070B54FF08045288AC10740480AD0A989F1
:1008D000C90707D0298A21F0010129824069BDE8B2
:1008E00070400047298A394C8A07384904F1880446
:1008F000A4F12006497916D52A8A22F002022A821A
:10090000012901D1006B8047288C800702D4A88E72
:10091000208003E0A88E2188401A3080288C80F047
:100920000200288470BD2A8A520716D52A8A22F02E
:1009300004022A82012901D1406B8047288C80065D
:1009400002D4288F608003E0288F6188401A70806D
:10095000288C80F02000288470BD298A090717D5CB
:10096000298A21F0080129828179012901D1806B2E
:100970008047288C800502D4A88FA08003E0A88F30
:10098000A188401AB080288C80F40070288470BD43
:10099000298AC906FBD5298A21F010012982C1794B
:1009A000012901D1C06B8047288C800403D4B5F89D
:1009B0004000E08004E0B5F84000E188401AF08093
:1009C000288C80F40050288470BD00002000002096
:1009D00070B543490888C20742480BD00A1F1288E5
:1009E000D20707D00A8822F001020A808069BDE898
:1009F000704000470A883B4C3B4D04F1900492073D
:100A0000A4F1200618D50A8822F002020A80017A91
:100A1000012901D1006C804728888107334802D41E
:100A20000088208003E000882188401A30802888D0
:100A300080F00200288070BD0A88520718D50A8805
:100A400022F004020A80417A012901D1406C8047DA
:100A500028888106264802D40088608003E0008848
:100A60006188401A7080288880F02000288070BD3E
:100A70000A88120718D50A8822F008020A80817AAB
:100A8000012901D1806C804728888105194802D44A
:100A90000088A08003E00088A188401AB0802888E0
:100AA00080F40070288070BD0A88D206FBD50A88C1
:100AB00022F010020A80C17A012901D1C06C80475E
:100AC000288881040C4802D40088E08003E0008874
:100AD000E188401AF080288880F40050288070BD9A
:100AE0001004004020000020200400403404004096
:100AF000380400403C0400404004004070B54349C5
:100B00000888C20742480BD00A1F1288D20707D0B4
:100B10000A8822F001020A80C069BDE870400047DF
:100B20000A883B4C3B4D04F198049207A4F120063F
:100B300018D50A8822F002020A80017B012901D11E
:100B4000006D804728888107334802D400882080C0
:100B500003E000882188401A3080288880F0020055
:100B6000288070BD0A88520718D50A8822F004022E
:100B70000A80417B012901D1406D80472888810688
:100B8000264802D40088608003E000886188401A0B
:100B90007080288880F02000288070BD0A881207A5
:100BA00018D50A8822F008020A80817B012901D128
:100BB000806D804728888105194802D40088A0806C
:100BC00003E00088A188401AB080288880F4007073
:100BD000288070BD0A88D206FBD50A8822F0100250
:100BE0000A80C17B012901D1C06D8047288881041A
:100BF0000C4802D40088E08003E00088E188401AB5
:100C0000F080288880F40050288070BD10080040D3
:100C10002000002020080040340800403808004030
:100C20003C0800404008004070B504460D46194994
:100C300019488C4203D1816941F400618161B4F1AA
:100C4000804F03D1C16941F00101C16113498C4258
:100C500003D1C16941F00201C16111498C4203D144
:100C6000C16941F00401C161FFF75EFB0646204601
:100C7000FFF75EFBB6FBF0F0B5FBF0F0010C4A1C91
:100C8000B0FBF2F02185401EA085A08411202080B9
:100C900070BD0000002C0140001002400004004024
:100CA000000800402DE9F0434E4CE668B08C214628
:100CB000676B8A6BB84202D8606A904273D0606AF0
:100CC000904270D800204749DFF81C81D4F814C046
:100CD000CD6C39E094F83C10414301F03F03616C66
:100CE00038F913305943CB1701EB5341C9138542EF
:100CF0000FD894F84030434303F03F09A36C38F910
:100D0000199003FB09F34FEAE37903EB594301EB35
:100D1000E331DFF8D890236D39F9109003FB09F324
:100D20004FEAE37903EB195301EB233101F500613D
:100D3000002900DA0021B1F5805F01DB40F6FF7188
:100D4000236923F81010401C8445C3D8002305B143
:100D5000E364A06A32283AD1A362E06A401CE062F0
:100D6000E06A062833D2DFE800F03203060C0E10EA
:100D7000E16961642BE0216A2046A1642021C164FD
:100D800025E0636423E0A36421E02146E362086B6D
:100D9000401C0863086B062811D005DC012808D028
:100DA000032814D108E01BE00A280BD00F280ED12D
:100DB0000BE01220C8630AE01320C86307E0142088
:100DC000C86304E01720C86301E0CB610B62B08CFC
:100DD000B84202D8606A904202D0606A9042F6D966
:100DE000BDE8F083900100205C100008DC100008D2
:100DF00002E008C8121F08C1002AFAD170477047E4
:100E0000002001E001C1121F002AFBD17047000041
:100E1000002013E00B4951F820100D290DDB0021B3
:100E2000084A42F82010084951F82010491C064A87
:100E300042F820100021054A1160401C0628E9DB19
:100E400070470000E0000020F8000020CC000020E7
:100E50000548416A491C4162816A322902D2816A8D
:100E6000491C816270470000900100203B480068E7
:100E7000401C3B4908603948006848603948886030
:100E80003948006800EBC000C0000861002007E09E
:100E90000021364A42F82010354A42F82010401C02
:100EA0000628F5DBFFF702FA002369220221314808
:100EB000FFF78AFA00236F2201212F48FFF784FAF7
:100EC00002236F2200212C48FFF77EFA00236F22B5
:100ED0000E212948FFF778FA21480069032190FB89
:100EE000F1F422462548FFF7BBFB1D49C86052219B
:100EF0002348FFF73FFB02212148FFF707FCE122CF
:100F000003211F48FFF7FAFA1E490020FFF7E0FA15
:100F1000134801691C48FFF787FE1C4A02211A4842
:100F2000FFF752F91848008840F001001649088080
:100F30001748FFF717FC17490320FFF725FC4FF070
:100F4000E020006940F001004FF0E0210861084610
:100F5000006940F00200086100BFFEE7C400002005
:100F6000CC0000207C110008C8000020E000002018
:100F7000F800002000080140000C0140000400407F
:100F80000024014010010020000800400D1000085E
:100F9000407E0500990F000810B54020FFF7B8FB10
:100FA000FFF780FE1348806820F001001149886037
:100FB000002419E0104850F824101048FFF7F0F80A
:100FC0000F490860084600680E49884207DD0E4850
:100FD00050F82400401C0C4941F8240003E0002094
:100FE000094941F82400641C062CE3DBFFF710FFDD
:100FF00010BD00000000024004000020100100208D
:101000001C000020840B0F00E00000201148124952
:10101000026843689A4214D22DE98001876837F943
:1010200012C00CF5004CD0F80C800CFB08FC4FEA09
:101030001C4C02F101020260C1F800C0BDE8800151
:1010400006E0D0F80CC04FEA5C0CC1F800C0FFE726
:1010500070470000CC0000203C040040FF7F627F0E
:101060008A7D7D7A4276E3706E6AF262825A3451EA
:101070001D47573CFC302825F9188C0C000074F3F0
:1010800007E7D8DA04CFA9C3E3B8CCAE7EA50E9D9E
:1010900092951D8FBE89838576829E8000809E807A
:1010A00076828385BE891D8F92950E9D7EA5CCAEDE
:1010B000E3B8A9C304CFD8DA07E774F300008C0CB7
:1010C000F9182825FC30573C1D473451825AF262EA
:1010D0006E6AE37042767D7A8A7D627F670AEF08E6
:1010E0004C0B860FF90AA0089507E3027B04340431
:1010F0000F06AC011A0B890C0802030E4C01BD0E41
:10110000C70AB70AD20C810CFD0EF8048F07140E23
:1011100003043E02280E8F0907009E0AB90C3A0B01
:101120005E09C60F60031F06D107B30C20078D09A7
:101130007F06C101CF0948089409A20A04011801D9
:101140007F0CFF074B0C3909A401D7050A011602D1
:101150004C08E1050307B702A90D9C03DC41000818
:1011600000000020CC000000F00D0008A84200089C
:10117000CC0000201C050000000E0008000000004C
:10118000000000000000000000000000000000005F
:10119000000000000000000000000000000000004F
:1011A000000000000000000000000000000000003F
:1011B000000000000000000000000000000000002F
:1016C0000000000000000000FEFF00000200020019
:1016D000000002000000FEFF020002000000000007
:1016E0000000FEFFFEFF02000200FEFF0000FEFF02
:1016F000F9FF000002000700020002000500FEFFE3
:101700000200FEFF0C0007000200F9FFFBFF0A00C9
:1017100000000C00F1FFF9FF0F0020000700E7FFB9
:101720002F00F4FF07002500E5FFCFFF8FFF140017
:101730008CFF7BFE8CFE84FE42FE87FE84FEFDFD58
:1017400009FE09FE4EFE6EFEA4FE8BFDBAFDF8FEFC
:10175000C7FD70FDFCFCB6007F03E3010603BF027A
:10176000D202D2024D02CB024802E8012D01FE0155
:101770009C02B502A6035203F202A1026302AA016F
:101780006800ED00830210030D0312033E0279018D
:10179000740157016C00EFFF630094010D03DA023E
:1017A000D201CA00D4FFA5FF850085003AFE50FD96
:1017B00031005004110530035201FFFD6BFCF6FEB1
:1017C000190069FC38F81BFA20017B067D066302CC
:1017D00015FE30FD96FE07FEF2FAAAF852FAD6FE82
:1017E000D9010F01ECFDE3FAC3F90DFAF6F9E2F8BD
:1017F00051F80FF9C3FA5AFE1B009FFD76F938F72E
:1018000083F941FD47FF9FFE81FC46FB5EFB12FC16
:1018100054FAC4F64BF5CEF6DBF90FF973F6E4F69D
:1018200039F90DFCB5FBF8F788F56CF8A7FF390717
:101830002E0A6D07810125FA6BF5A8F4ADF50BF7BB
:10184000BEF955FD78FF6FFF27FE9FFC39FA5BF864
:101850007AF7A6F675F7A5F9E1FC78FE4DFC50FC89
:1018600083FBCDF441EF24F012F513F60AF328F4CC
:1018700094FA2C00C2FD04F723F4DDF76301200C79
:10188000D51189107F0AD201CFF9D9F365F243F55A
:1018900068FA71FF01037F0432026AFF18FD08FA3B
:1018A00051F7F8F7D2FA16FF24030F060905E000F6
:1018B00032FC99F99FF6AFF2D1F03CEDBAF0D8F6D0
:1018C000D900E90446047EFA84F0F9F9B9ECE0C8DD
:1018D0005EC442FE87277120B3195628ED2F681584
:1018E000400053F175EF51F166FBA007CC0BC61712
:1018F000EF157E0723FAB0FBBCF58AEB84F05B00A2
:10190000301102192418270DEA062CFE10EE37E1DB
:1019100003E1EDE65CED7CFA83074B0A04FEEBEE97
:101920000DE8BAE724E8D1F74B09E007B803970EB2
:101930007A247531FA2AB812890346049C092EFECE
:101940006BF4BEFB0A06860F1D0BE608D90671056F
:10195000F201E602ED077009750B88075209040BC6
:101960000C078AFAF8EFA9EA4DE778E92DF35EF95A
:1019700086FD5EFB99ED0CE4FDDB9AE1A3E545F203
:1019800062FD6E0C2F29012B2D155DFD3A0AB11F4A
:10199000582EC027BA167A18CE1F072148093AFEDA
:1019A0006FFAFFFD8FFF1402940F5C112A147A1155
:1019B0001B14A30F4F06BAFB24F066F4FBF815F7CF
:1019C000C0F129F03AF5D1F762F283E764DB10D475
:1019D000DED051D170D30AE033F1CA0CEB1CCF0139
:1019E0002DEE6A1332528455CC33ED2F6241E1392A
:1019F000E51A3E0188F430F6B1F788015D05260A44
:101A0000ED0EE10942046B0373112A0E53FF60FFD0
:101A10005E0F4D106506C9FC8FEC18EA5EE6DDE34B
:101A2000A7D5D4D08CCF5DC721C617CBAFDF4AE492
:101A30002CFE7CEFE3CB18F1BE2A1C4D26627D6B99
:101A4000B4509E51D547FF26DD04C2EA36F332EE8C
:101A50009AFD7812911327141A123B06B804D80382
:101A6000C6FB81036302BC15F11FFA0FAD02DFEF65
:101A70002DDFE3E08CE42ED430C665A17891988AFE
:101A80002498E6B1ADC52AF9C1E6E8F2BB2FB95FEB
:101A9000FF7FFF7FFF7FCD6C3864EA4A7E2A1CFB04
:101AA00050F50BF7A2E9AA0197F4F8F748FAF7ED19
:101AB0003504E8079010A4182D0ED3183F252F22C7
:101AC000140FFBF17ADC21E129DB84DAC2D0ADAB63
:101AD000428D008000800080F08AE6A58CAE35FC47
:101AE000A454FF7FFF7FFF7FFF7FFF7FF95EFC3203
:101AF000BE00E4E34BFC28F525008101CFF129F776
:101B000015DB56D8A1E091EA1E0975163C2B5B4403
:101B10005D498D2B770931EADFE79EDECFCBDEC54D
:101B2000A89500800080008000800080FB99CBA3F6
:101B30005DF8B34DFF7FFF7FFF7FFF7FFF7F2C7836
:101B40009F40D20E90DBE9E82CEB83F372FBDAE2E4
:101B50006CE541CD84CE2FD871E4FC020D15802EAA
:101B6000654B474F3230EE178DFB4BF5DBE3EACA8E
:101B70004FB0008000800080008000800080B5A50C
:101B800008B1A7FF415BFF7FFF7FFF7FFF7FFF7FE4
:101B9000C77D134EEB1D0EE9C5F250E1A7E2E4EF5D
:101BA000BBDD18E245CAA9CE0CE453F18309FE1A45
:101BB000A42C7D49C34B4E2E6F1AB4FF53FFEFEC9C
:101BC000DACC24AC0080008000800080008000809F
:101BD00074A835C0240CE365FF7FFF7FFF7FFF7F84
:101BE000FF7F057A3D43B2167FF6D1F8C6E838E3A9
:101BF0003EE5EBDA6ADE49CE05D2A8E5FBF8A80E91
:101C0000B320AA35EA4F13504C28940D78F80EF8FB
:101C10005EEC26CC3BB0008000800080008000801D
:101C200000801AA610B9E3F95855FF7FFF7FFF7FA8
:101C3000FF7FFF7FFF7FB656DD25D8F8F9FFC3F39E
:101C400092DFD2E775DC5CE146DAA1D408E85CFB00
:101C50008E0CCD1DC32801454750552DC21358FD8C
:101C6000CCFDAAF8E4D4CFB6628400800080008066
:101C700000800080DEAAFBC1F5EE2845FF7FFF7FD4
:101C8000FF7FFF7FFF7FFF7F24631A323106400012
:101C900007F90DE0BFE7D5E0FEDF76DE08D233E4DA
:101CA000DFF52808F91C49204D32C248EF2E5A11A1
:101CB000010220FA13FDBAE7B9CA36990080008004
:101CC000008000800080BC9797BFA0DED826FF7FF1
:101CD000FF7FFF7FFF7FFF7FFF7FC476734839154B
:101CE0001DF78101B0E819DFC2DDBFCE5BD8CECED3
:101CF0002FD801EE2F000220B1286131C844433EA5
:101D00005821040B6CF9FAF5E6EE0AD126AB0080F7
:101D10000080008000800080978272BF26D540013D
:101D2000314FFF7FFF7FFF7FFF7FFF7FFF7F346D9E
:101D30006A3C4103A7F70EF100D885DF9ED245D259
:101D400002D688D161E870038314C4256C27AC35B2
:101D5000BD420D23440C3FFC6AFAD6FF58EA35C158
:101D6000568600800080008000800080AF9CA2D555
:101D7000A6F5BD2D657FFF7FFF7FFF7FFF7FFF7F84
:101D8000FF7F8159732EE80713FF73E386CC68CC7D
:101D90002BC67CCDECC9AECDF4F8A918352B123783
:101DA000A42C24396F2FF00940F844F072FCA301F1
:101DB00033EB68BE268200800080008000800080B7
:101DC00032AA36E483005348FF7FFF7FFF7FFF7F07
:101DD000FF7FFF7FFF7FB34FF428FB125A12C9F534
:101DE00070D32CD1EDBED6C843CAD9D2A904601B8A
:101DF00071348A3CA734B141B81E15F594E6A2E3CC
:101E0000B4F45AF5FBDD3CB800800080008000800F
:101E10000080008046AC35E846FC6A36FF7FFF7FD5
:101E2000FF7FFF7FFF7FFF7F89716B4E2123960528
:101E3000C2069CEE9DE24DD9F1D0F2CA14C4AFD1D6
:101E4000A1EDEA0CF422BE300934F9493C3EAB1056
:101E5000E4F587E91DEAC1E7EAD8C1AB008000805C
:101E60000080008000800080B4A9CAF10307EE263C
:101E70000B6EFF7FFF7FFF7FFF7FFF7FFF7F1C6E6B
:101E8000FD47861D0B03C8E719C4ABC6A1C047C3F5
:101E900071C91AD461FC631DB231EB39CD36D83B20
:101EA0009532DE0740EBFAE891EBA3ECFEE529C1A1
:101EB000D38C008000800080008000806B9E2AEC24
:101EC000630E6B17BD55FF7FFF7FFF7FFF7FFF7F97
:101ED000FF7FFF7FA56AC042F8055BEB3CC51FB2E0
:101EE0005FBF70BA72CCFBDEED018625B6263C2AB8
:101EF0001D2E162F1232DC1070E25ADC81ED2FF30A
:101F000051F764DBCDA40080008000800080008059
:101F10000080B7CBCC26262B133CE468FF7FFF7FE5
:101F2000FF7FFF7FFF7FFF7FFF7F346C4A36C2FE5B
:101F3000A0E48EB4F3B410BAAEBB3FD561E7ED0EAA
:101F40000F29E13054372535D437D82D2204C1E08C
:101F500023E775EFDFF7EAF228C4D88B0080008012
:101F6000008000800080039047F02F2F3B36CD4546
:101F7000BA69FF7FFF7FFF7FFF7FFF7FFF7F3F7695
:101F8000CD58F72355E8BFCD0BB9FDBB8EC820D285
:101F9000E5ECEC05C51BEC2DEF290927BB21211E23
:101FA000B715DCFC87F268FBDA0AAB0896F29ABF39
:101FB000008000800080008000800080EEB2740805
:101FC00010407333242C1F54FF7FFF7FFF7FFF7F60
:101FD000FF7FFF7F0F7BCC4FB70169D4D8C71DAD02
:101FE0006FBC2FD02EE21402AD1B5738F93C802F66
:101FF000B22B0B17820C7A0BEBE8F0D3A8E6ADFA04
:102000008302D6F737CD46900080008000800080A4
:1020100000807FACB8FDAD44944A332C193E366A3B
:10202000FF7FFF7FFF7FFF7FFF7FFF7F8C7E673516
:102030001CE70BCE3AB36AB6E3CA7DDCB7FC531992
:102040002133184141323E24F516A8003A0A050012
:10205000DAE2CDE0F1EB09FD72FCF2E544AB008081
:102060000080008000800080158B78DCBA1DA153B1
:102070002C43F229FF479E7AFF7FFF7FFF7FFF7F80
:10208000FF7FFF7FB15D6300DCCB54C38CAF16CF05
:10209000C1D9FEEC7D125E28C6388432A71F9D137D
:1020A00009051CF65600B4F252DAB8E46DF356FF97
:1020B0005BFA5ADA8D9D00800080008000800080ED
:1020C00057AA00EC352D5F55B435FD25CA449E7BDB
:1020D000FF7FFF7FFF7FFF7FFF7FFF7F445B92F5E6
:1020E00091CA56C27AB271CFBDDBB2F42616982DD2
:1020F0004A3CE22D34148E0CC8F985F10507F2ED47
:1021000020D7B2E0A8F9910B40FAB8D4C69100806C
:1021100000800080008000808FA870E7192FCB52CC
:10212000BA3A16142E2C5568FF7FFF7FFF7FFF7F82
:10213000FF7FFF7F2E5BCCFF5CBF8BB32BAB6BC6EF
:1021400066E2DCFA331FA73350382830011E27120D
:102150007901FDF0E20597FA45DE78DCB8E471F725
:1021600003F47CD2B08F008000800080008000806B
:10217000DEB6AEE81216EA42DD54C9265723BF5B2D
:10218000FF7FFF7FFF7FFF7FFF7FFF7F0F6C621866
:1021900088BD05AEB6A889BA3CDBBDF0B210AE333F
:1021A000CC42AE3BF4270316501164FD9B064C0D48
:1021B00066F4FEDFD9D290E7BFEFF7DF4BB20080C5
:1021C0000080008000800080D59EC8CB87049C2BB7
:1021D000CC63F869412322207F46FF7FFF7FFF7F8A
:1021E000FF7FFF7FE3797B420BE80E92639536A277
:1021F000F1BB47F2D90F534054592E54AF36D70E86
:10220000B1FFE1FB27F74F07032358046AE53CD2EF
:102210003CC6CAD804C76698008000800080008051
:10222000B48E7BBC92E1A6085D26543E0B76495BDA
:102230007811B21B2B5AFF7FFF7FFF7FCB7634587C
:10224000E4478A2170C70F8E62A847C283FB7F2BA9
:102250002336EA4FC3513E3E771E64F6F4ED52EE4C
:102260000BEE3D04D41481FBAAD1DAB138ACBBCA61
:1022700017D3D3BA79860080008000807488DE9BF3
:1022800051C294EB5B1A7E3EAE69FF7F985BBF1F25
:102290004E342A5E4A79FF7FD77C4D534352CB544C
:1022A0009D207CC07EB044C86DD16DFB85144B244D
:1022B000DA4744551A40BB2288076CF0C3E558DD65
:1022C00027E3D1F1F8DB33C2BDB429CE26F40DEEFD
:1022D00088BD00800080008000807F848DA235D37F
:1022E000BA118051186B9273FF7F41673A1285F9DA
:1022F000DF323B5D2A6DA477A05FF04DEB52463193
:1023000047D7ADA20CC3BDE94D0209255F405C4B28
:1023100020523B36EB0AE5EC63DF9AE86BE7B2ED5F
:10232000BFFCB6F165CAF1A0BE9BE0BB92E632E805
:102330006EBBBF97F693019D7E9B0A9BB3A5C1CB55
:10234000420D7643D06045650C78FF7FDF3945EC60
:10235000FC01183C0E5C82700873E6593F4F17531E
:102360003F1FB7C581B92EDC07EB090BED2F564295
:1023700013495847B5252EEF0CD606D374CB94CA13
:102380008FDF1DEB5EE714D76DB869A571BBECEB71
:1023900091F1CBD228B7A0A809A0A69E679F3AAD1D
:1023A000AEDC3512FC3E19517663B869C866CA6660
:1023B0002316BBB53DC8FB28E4637E73C27DAC69C0
:1023C000C946E3445B2072C484AB16D830FD89183B
:1023D000B63BB6433E36E8288E0342D54CBCDDC240
:1023E000A1C663D8D1FF74148911B0E956BBBB9B59
:1023F00076A117C6CFD8E5D89ACC8DCCA2C975C026
:102400004DBD11B55FB4CCD6DF10823B7C5AD15C98
:10241000F05A42503B3B821AF5C64F9A4CD03136A7
:10242000556FE977097EF171CA568941280FFFBFC0
:10243000A6B7A2F807360B4DA75515464116CDF4A1
:1024400085C9798E0080309262C808FCCB2C303F61
:102450004D31040C53D6E1A3318D70A5EACA0FE6C5
:1024600068ECBBE483DEBFCC4DBF24AC59A2F2B70D
:10247000BBE575252B4D13630A66F35C3E4CAD221C
:102480007EF204C027A626C75F269076FF7FFF7FD7
:102490009E7B675D963BDC0FFDD6C1C4A7F0C12AC9
:1024A00092533A6261463D0CEDD873ADAE85008023
:1024B000E58DDAC078F653349D4FF040D71D86F590
:1024C000FCCD63A2DC95D2B7DDE9A5FA48E79FC150
:1024D0003A9EBB92DD984BA55FB394DF00292E692D
:1024E000FF7FFF7FAF581E30AE1F55094FEC18E439
:1024F00051D790D4D305AB54FF7FFF7F21744F4B4E
:10250000841E39152506D3E3D4E4080EB936F84FF6
:102510004558BE3C94FFE1DA2BC7FD9FE28A6AA3CF
:102520002EC86AF3A125BF3F98397D1A87F968CB79
:10253000CAA241AC5ECCEFDF8BE034CB1AB2F5AB74
:1025400010B850C7C2C2C6C5A9E12013DC45075D5B
:102550000A577349B83B6F23E919DA0A7BFF04F085
:1025600083DFE7F6A22C9766FF7FFF7F1D79386334
:102570003547AB259EF377D4CEEAA205C71F222E9E
:10258000B923AB0946F6CCDC24C28FB77CC04BD54F
:1025900042EAF70E0A28442D361AD1FE7CD433A61F
:1025A00049A5D8B981C698C1D3C042B595A474A92C
:1025B00033B456BBF5CD94F908241142D74C2947C2
:1025C00058349A1864FC75E249DD4CFE2B25A92C81
:1025D0004029B33A5362E07EFF7FF56F2A495334B6
:1025E00073405A48FC2AD914C8143018111BC61756
:1025F000B1FE7CE0ABD2D9D963E0A7CE13CE7CD4B8
:1026000059E58603B80479F992E69BD670C74CBBAE
:1026100093C12ECEF5D3FBC972B2E7987F92D199C0
:102620009EB1FFC748D98FFA241717378749B03EA4
:10263000E329780C50FBA2040A1CC42B052FE828C0
:10264000201B28239650FF7FFF7F886E0A65F35476
:10265000C63EFD27EFFF1FDCB9DE0501AD16E6150E
:1026600038187F10590246EE27D6B6BBDAAB38C70A
:1026700078E27DF75BFFABF4E5E4B9CBFDB4D6A11E
:102680003AAB45C21FDCB4E54AD8E6BEA3A9D2AB3B
:10269000DBA6E2AC06BF53EAFB1BF3403150F63435
:1026A000AA21D510A6107915B620D2309F396B4DCE
:1026B0004A35F81F2831264C9D5DC85ECA65EB611E
:1026C0009D4F1842A329A6F5D2D8D3DCCBE753F807
:1026D000C609EA157613DE0880F893E2C6C677BF0E
:1026E0003BC92EDB28F31EFBFBF840E4C1D2BEC37E
:1026F00021C091C9E1D426E2A5D13BBB08AA05A817
:1027000064A50B97AE9F51BC76EB71273B503651B9
:102710004A2E7C1623167B0D320AD70E66185E22CF
:10272000F13A5D50DC3E932C9C387B44D24C5C608B
:10273000BA622F573C53D44BF42118F781E755E286
:1027400042E402F78B0838043708E80E7408C8F32F
:102750006ADFC5C43AB26AC99EE680F2A1EF59E0C9
:10276000D9D72DDAC4D4E3D2EAD03BC9DEC5BBBB8E
:102770001AA57892D597899EC09B2BB351EB9613DF
:102780000228F523C2198322E631BE454234E424EF
:1027900000296C2E85365E36572A36221834C94FEA
:1027A000F869116C507056720264894F552C2205DD
:1027B0008BE9DBE5FCF3B7014905BD0A7D0C5B063F
:1027C000EEF74BE974D722C805C950DCDBEA6FEBA2
:1027D00095EEBCDAB8C163B884BAA8C4B6D060D6E6
:1027E00031CF2ABE66AAA1A391A87CA58AA255BF13
:1027F0009AE7790D3B367D48AC2E950B4E11702A29
:102800002B3A113D4228261D2A28793EA94DB6357E
:10281000EC1F5A1F99371555A05F356127649464E2
:102820007650BC31E7F705CBF8C248C60BDA8AED23
:102830002CF90102D50AFE080DFB4CE5A6D95CDB9C
:10284000C0DD86EF1B003AFECFEC0BD3AABCD0B1A3
:10285000A3B743BD19CB48E170E7BBD13BBBCEB4B6
:102860001CB137B86CBBA0B5FCBDF8E9BF0ACF15E9
:10287000072057172417302BCD38D6274220032B9B
:102880009D26BF2B373E8F356F2E7053EB7CFF7F1D
:10289000FF7FFF7F176D1B3CAE19A9FDF3D500C963
:1028A000B6DC17EE53059F24E4252C148514620C26
:1028B00002E5D5CE21D92FDFF7FB0B183A0B86E7BF
:1028C00061D39CDA12CB1DB32FA9B8B47FCEAEDC96
:1028D00071CA98A7BD9AD098F59E48AB64C863EDBD
:1028E000FE1B8C41A53D041E7E0D010F820D812330
:1028F0004420C00D24170B39CF49F93CC234CF1CFA
:102900005B072514792811271636814CC24E784F63
:10291000BE50F3331A04ACE9B9D7A9C7B6DD1AF62D
:1029200018F07CFB8D070413780C5BFFAEF0BFDA68
:1029300030EFF30413062AFF88ECE1CD3FB9AEBBBC
:102940006BB965B04BC5C1D4DBCAF3CE50C643AA40
:1029500072979F9E3BA855AB77B848C66CD60ADEE7
:102960006EE88F0DF7240D322C3BFF326631402E7E
:102970005E38CA368027D0382052BA5A21615C6E40
:10298000FF7FFF7FFF7FFF7FB650CF27AB1712FA85
:1029900016E557E84DF3CA06E219261EE01AB10DF6
:1029A00034019CE738D072DF57EE21F47BF35CEE04
:1029B000D0E73ED3E8C4CCC284B427A61CC0CBD495
:1029C000B9D23EC5FCB1B19F98857D98FAACA9B249
:1029D0004BD5F105E2335A4D283F10171F040EF86E
:1029E000CBFCF40E51147318163015542140DA172D
:1029F000A90401FB0E0A1B210C3C89419126DB1A1C
:102A00007928722A2B24DF2B9F25371E1620491286
:102A1000FAFB91DE5FCEEBD95DF29FFE8101E014FF
:102A2000D516D6FF8CEAA2DD60DF70E8F8F16DED17
:102A30004AE47BD720CB49CFBDC804C136C34ACBBB
:102A40002FCA0FC59BC9E2BB0DA3DF98B3B455BA1B
:102A500032B2A1CBFDD653D584CD32CDE0DEEA0D26
:102A60006D38E04A0D45263A6C4F2F59E0509A4C8C
:102A70002751F23E435327799877FF7FFF7FFF7FEF
:102A8000FF7F8E77E55D1B21F80CA109CEF5C2F121
:102A90004316BB214117D8122AFAF9EBC3E008DA32
:102AA000FBDC79E5F1E93BF38405CAEB98CE08C677
:102AB000EABD9CB877B8D1BB22C1BACD48D155C1C7
:102AC0007F92008000807E962FBE9FE3A5138749EA
:102AD0004F5F565DB951831609E9D4FA4810B31710
:102AE0005D2D04390E27011DE934BD2EF2F492D973
:102AF0001BF8DB285945064E9D2D23F577EF8F13E4
:102B00004A1CA6085209AC26E440513550162EF155
:102B100032D3F3DBF6F2EAF100F2B6058F0D6A0E5E
:102B2000370175E111D60FDF70E12EE43EE67BEA56
:102B300037E797D9EEDBDED9ABDA49DD98DC6BCC31
:102B40000DBEC1BECBA4C7923E9499A2EFB0A6C061
:102B500039D939DF5AD48FBE4ABE5BDD1CFD550A18
:102B6000C616A73BA44D5D4EDB64B156E5499F698F
:102B7000535DB341664D7972FF7FFF7FFF7FFF7F1B
:102B8000FF7FB95E6D378CEB36CA8CCFAADED208D8
:102B900095392242972AAB1850FBEAE538CF78DB0B
:102BA0005AE8ECF0930B70F633E9C7C84FB660B043
:102BB000E8966F95DBA0A8CA3AE9FBF01EC48F8E99
:102BC00000801782A5A103B8F2E5690BA22C244E60
:102BD0008D45FC32761B9605ABEFE9E148F36513B2
:102BE0007C23AF287930A5303E1517FB33F6EDDF97
:102BF000EFECB60DB51EAB1E200EDB140DEDF7D2BB
:102C000020F21E007D18C03BA742DF3A6C34DD1E67
:102C1000C1FB76D8D3E1A4F6AAF9F60D2817C40BA8
:102C20001A12CF0D85ECB4DF93DC8CE371E3D3E1B2
:102C300020EC2EEA2DE82FE6BFE74FE60FEC08EE7A
:102C40001FDB10C145A8A3A2CAA10DA4CFBD44C0DB
:102C500020BC03BFF8CE6DE620D004C1F4A88FD00D
:102C6000960D122B4042733BA455053CC336FA2CFB
:102C70006044BE72B870FF7FA56AFF7FFF7FFF7F51
:102C8000FF7FFF7F4C5686315B2FAAF1AEDC38E91F
:102C900015E1BE148E19CE0B23157304FFFDC3F28C
:102CA00065E681DA31EB780581FC5DF7F9D9A8C5D5
:102CB00090B9F4AFA2B522BC79DEC4E927E4D3E22F
:102CC000F4C342A650ACF3B20BB854AFA395A7A17E
:102CD000E6BFF1EB5D216D46455E29632D4CBC30AE
:102CE0001B0DD3E38ED59DF780229C0FF50AAD0F07
:102CF00097FA71EA65E4B9E598E425009428E04282
:102D0000E8371416A4EEFBD625DE51FEA91986314C
:102D1000785DDB6B56631E2F83FA62DEFBD6E8ED2F
:102D2000F9FA2404A2F8090A231DF209F7ED30DBB1
:102D30009DEA3BF89709FB0C30EFC3E6E3EDCEE1EB
:102D40004AD1AFDFD6F2CEEFC2E91CDBE5C97AB3D8
:102D5000D4A8D4B062AECBB1C1CDA5F12AFFAFECFF
:102D6000B0CEA5C291C3CDCB2CE5E3142235A0494A
:102D7000E858985D9451EE2B4830462C343D266738
:102D8000CF72F46C51513F543849A73362275B0E20
:102D9000090C6330644EE653EF3D17230D15BE0654
:102DA00015FD83DFC3E75FF7A7044C0BF4FA57EE7A
:102DB00088D808F4E3FA36F17FF090F47B07DA0361
:102DC000ECF2E9BFC4B2EFBB8DCCAEE906F0BCEECD
:102DD000F7E0B0D934A998850080FC9579D144E812
:102DE000C8EE05FA17F4FBEA641026163E1D60359E
:102DF000D83BA72E7F1E662BF414940D21F407F107
:102E00006F0D721CB2311B28381FC718E02DF62633
:102E10009605A4F58FF394F9B0E949E271E5610AEA
:102E2000CA36F24B264C7B36551D9E0EE61035F504
:102E30002AE43FF52C06C41FFC1C680138F0D6F2CA
:102E4000C3ED5BE537FAEBFBDAFCC6035900EEF5A0
:102E500074DE7ADCD9C953C20FC5E9DA970397FA51
:102E60001BF278DC7CCB59B60AB572E162EAD3FE7C
:102E7000D3118816760048C60AAF3BA06AA9ABCD2D
:102E800040008A355546B24CCB46EA302116121E18
:102E9000C3281B132C13740DCC189C30262C8B2BA1
:102EA00061102E0B920F5A0B6316460909199B1BD2
:102EB000F9069C0FA5280037AD31FA2435110C0511
:102EC000C2F059E05FE29CE098DD99F2E6FC43FB3A
:102ED000A206CE0421027DFEDCFA5CF506E70FECCB
:102EE000D3EFA7F022EB14CBAAC297CCE0D7ABF478
:102EF000B50926E7EFBCE7BA22C257D96AFF841F9B
:102F0000822092173C03C2C9379E438FA99760D194
:102F10003E09ED37E0577553064D4F3773256A016B
:102F2000C5F8ED16102652456E2CEB0ABE0181D96C
:102F30000DD923D1F1D673F85DFDE528682BA124C6
:102F400092295E0EC624402E402E0638212A4220A9
:102F50005C10E7FE1AE94BD38EDC0BE8C8016E1853
:102F60009C0FD207EC0555FD21FC6B0FF5FC5C01B5
:102F70004A0D73FF40FADAE84EE989DC81D26ACA69
:102F8000B3C877D3E9E16403C00600FA57FB57FCE6
:102F90006D096905B7F504035203B40085E56DB00A
:102FA000F89928B090DACB11C12B982DF053D75354
:102FB000265BBE43790F4C0C8A07840A640A110E03
:102FC000EAF2B3EA89E97DD021D3F8DDEBE0A2EBA8
:102FD000DBFF2FEC5BFFD90F9715242C3E2F402FE2
:102FE0006E1F7031231D6B044DF485DF41EE80FAB6
:102FF0009210400E1510D60B6309750B75FD8A07EC
:10300000F40EE81CD627581ABC01D8EF1BDFD7E115
:1030100084FD3ED935C185D6B2D2DDF17FFE6BFB92
:103020002315CE19E4264C28900A48F55BEBE6EF11
:103030000EF85AE97CD23CCD0BE1A4FE431B6C2078
:10304000DA1E073B1C40DB3576282E0C0D09551F78
:103050007119B3F0E5D126B8DABF18D757CCACBB9D
:10306000D7BE6AD802F2D70863000EF7FA103216FC
:103070007C1D5312F30B41254F29C52E801374F488
:10308000BBEA45E42B03DF109A0496129510200644
:1030900010114AFFDCFC5F030103F9158B18991B23
:1030A000BD0AABFC07F916EA840BE4038FD113E9E0
:1030B000E8ED3EEE96FF63E7B5FDA2FE5BFA212543
:1030C0003629412CCC0BDEF23E0145FF9DF8DBE5B5
:1030D000D4DE92D2DEDF47001D12B4297E28A5304F
:1030E000B636D126BE155607420CEA0DED0F4D0738
:1030F00055E755C0AE99008000804A88F0ACEADD03
:10310000E2F672038AFA1BF2EBFC11F934F9C302FE
:10311000FEFFC7120E255F18B8263827F21B1621AE
:10312000990E790D1F122F0FEA212A211311F10494
:1031300094F9D304A109DC160E1FBC177119D10C28
:10314000510C02052125B21CC1DF51F1FAD3E5D1A2
:103150009AE90FE6D215681B521684127B141A10D6
:1031600081017B0E8B184940CA3D1E1D9DF6CBB7D1
:103170005BA29FA6A6BE66EF3628254B965C024A48
:103180001B29DE0684F02DF5B8E495F6AF0061FC4E
:1031900095EE18C124990080A388F89F0FCAAAEB66
:1031A0006EFD2BF56EE808E6ABC636D05EDE860215
:1031B0000116CF0ECC1AE815A125391DFF25512285
:1031C0009E2337376028EF30760D1A0BBA17AD09FA
:1031D00081104C050B09640A2A0E62137D04FCFB66
:1031E0001A0B69111C162D0FA412561B71F9C9F682
:1031F0001CF611F889FCC2FD12108404F6062C138B
:10320000592223308B1E49198B118110490B15E966
:1032100095D5ABCD51D792EDFC075C17563496424D
:10322000BE3E6838C6105504DEF3C7FD61FC13E9E5
:10323000FBF2E7DBB2E7CEE325BDBFAD7E9D67A81D
:103240004FD2D8E39AE1E8DE81D277DFECE2CDD14C
:103250005FCF42E3BCFCC21119229A090E0CC00DCB
:103260007612772B7B1BB32DCC210F28BC39C20CD7
:103270000316EB0904FEB8119CFCE2F6DB0D8E117F
:10328000000EAE179106420B7112DFF71D065002B9
:10329000A7F19B05ED01C7F87D21442B2BF5DE003E
:1032A0006BFDF5E01CFBEFF22F0653111C10081606
:1032B00076006B166110A21A5A2DE2181A1FD01749
:1032C000D50367F143D91DD50AECBBEA700B4E203C
:1032D000E314FB3B522B971C42190D03E019762097
:1032E0002912580C8BE8E9C182A7008052978DB152
:1032F000FAB961E2F8E34FE54CEB8FE5FCE1D7E684
:10330000E0DE78E4B6EA99E51CFB31F8110C881C84
:10331000BF09200E87048603E527F62F3237CA3C03
:10332000511A041E33184AFA82EBEBE88DED26039E
:10333000C31BAA00FC084D0143FA460AF7FA1D0C0C
:10334000C903FC1C571DEB01300921E703FCA8FA57
:10335000FCF57509D5E2F6E4D1F22103440C4103F2
:103360005017AC14061E751DF1F91510D60CDA02B3
:103370007702D2EC58043D05C331904E0023230957
:1033800000EDDBF9B9087002BFF0F4F38F143628B2
:103390004B31A02E682267146F1B0802ACE404CFE7
:1033A00033B51EBDBDAED8A789B240AF6BC64FEDD9
:1033B000FFF560FA76F311D67BD155CE43CB77DF9C
:1033C000FAE853F83A17CE126314540127E40BF6C7
:1033D0001CFBA418302534158728FC31002E802FC3
:1033E000032A4A21A006FDE973EA7BD8C4E909F65D
:1033F00026E1C0FF7A0B3003C8153325CB1C992179
:10340000F811F0032E131805B8FDE507F51127058F
:103410008C053401C5FAED14FA0F69F7EEE966EF91
:1034200011ECB9FABD182123352D64199E013DFD1B
:10343000EFECD6E3E1F5D0FB18FEBE1C951EEA21A9
:10344000BF25C3025F04E7E952D98DEC9FFDF41C50
:10345000E425E947F63AFA31C3230D08C71896F870
:1034600001F635EE13DDD6DED3D408CBD7CC94D914
:1034700065D141E83EED3EE712E7D5E123EE02F0EB
:103480007BF3E7E479DEAFD16BD95BECD7EDC2FE1D
:10349000E300D4287E2858209327B415B22A352D6E
:1034A0002C435230FB0CD80C9AF5ABE868E503EDE1
:1034B00028EE13FFF7FB32FCC5FFFBF21BF2CBDB60
:1034C00006F0DB007703441114076D01EE0345FAA3
:1034D000FAE8830206100F0F781292FAEE03DD135A
:1034E000D40D511A811E2602BC01CAF8A5E4530569
:1034F000F305580CB4239F125209C3FB4FEB8BF416
:1035000083FBCF07EA28740FF8048C13BE00A617BC
:1035100008164D0EDD1E9612C3F3C2E3D3DB29D687
:10352000D7F3430EEF3B265A68460F365A12CAEBC2
:1035300093DD9DCED2C555E1D6F2F8F728FA70E2B8
:10354000B9D746D387DED3F7E1FB8A077320100A89
:10355000DADB6CD078C009C7ADE513DCEEE2D6FF4C
:1035600089F038FF58117DF0CBFBACFF67FFEB17FC
:103570001E0246E200F3E601ADF4FB0CA5144E1367
:10358000C132513BD11FBB0033E476DD610164F6EB
:10359000F9019320A2119C10C2F725E53CE038EB1D
:1035A0002FF442F12808BF049A09F1195EFA64F574
:1035B000C2048EFEED29F326CAF946FC93E276E5B5
:1035C000B10648F33AFDAC1939009812CF0D36F820
:1035D000331F2F0EA713E918EEEF8BF570FB62F087
:1035E00048014A1A88153A178A1AFD207119DDF820
:1035F0009FFC42F02EE2D7F45900C027B452414C50
:1036000047429B2E4BF6AFEB1BE416D672FB4FF3F3
:1036100043EE12080CEB13DCB1E535DB26DB69DC8D
:103620009BD772E125EB17EFCFFA3FEFC4D4AECEB4
:10363000A1D32BD4D2D3F9E5E3F2930B02212302D9
:1036400015F53AF7DCE04FEC6E0CA31BBE30E946F3
:10365000B23DA528272063F33FEAE300AEF6B2159A
:103660007E0109D651DD0AD2D8DD28FB3908B2091E
:10367000C316390F040A041145EC42EAFAFC020BA6
:10368000FE0898F72AF975FD8A06CCFE6218601BC1
:1036900097022D1610044301D6142802C704F5170B
:1036A00029115112BF1189F65DFD0B0481FC3B14F9
:1036B000BC1C9606CCFF790EA602B2098E1F7916A5
:1036C00057238D235E1D911414FB11F30AF3070D8C
:1036D000E2118B111615A403B209D709BD124823B4
:1036E0009B2D892BE72CF32CB7020FE0DDC9DEC53B
:1036F00000D0DBDEB5E85AF00A0604F85EE09DC7AC
:1037000096C325DECFE56CFEDDFF5CEF55EE81DB79
:103710005BD7B1D5ECD747E39CFA14FA14F25CFB03
:10372000A7DC93034522720F3539E32A34019D1A31
:103730004A30D02517372727CF15353820F987D5B8
:10374000FEE69EC4A5F120077CFA0B18BA041F0AF6
:10375000EC1382E999D95BE588F5E411950459E603
:10376000AF086C0070E768F3B8DC00FAD819BF1036
:10377000AA29171D1805061671FF88EDB3033DFF32
:103780005114D024000EB407AAF1F2E5C2F6D2FA21
:103790005907E62B1E3087280028E20C75FC6AEDDD
:1037A000BEE660F164FC5C03421A2719F303951F1F
:1037B00025FF9EFB251338E21DF9E9FED2D19AE1DF
:1037C000E0F280F28F23962EBD13D935161A4FF4EE
:1037D0008513FAEEA7D06DE763D3BAE9D30A26E7DB
:1037E000FCF4FE00E6DAA6E87EEDA9E160F973F0EC
:1037F000E8DE43E5F6E5BDE4E7F7F8FEC7EB6FED7D
:1038000099E008E780FA36F30C05B71CA020E6091A
:10381000ECFE49F179F23B07C0FEFFFD9FF640FA4E
:10382000041311222F0184FED80513E4B7087F0981
:10383000D8F7EB02BDF68BF666F62CE5B5E8CA0EB6
:103840005509B517821A94FA4B03C7FFFDEF59EDDE
:103850009CFB5DF8750387136A13830E6905E70CFB
:10386000DE07A911260F770111FF3FFD1FF7B3FEF9
:103870002F1C44128719A31BC816C81C34074D07F8
:10388000D008B30B430F340DDEF978F0B5EFCFE677
:1038900082F050DCC8F45B1A770FA01946035CE095
:1038A0004FF203F435FEC4244F0F7318EB1EA7F834
:1038B000F9084EF8C6E7F701500289FC4AF475E7AB
:1038C0008CDE30E238E31DE356EAEBEE89FE4A0671
:1038D0008BFCFCF554F3D8E93FE88DE693E9D9F386
:1038E00013F0F9F319E609DDDFE88DEE2CFE41084F
:1038F000C70DC013CD1639140307E903C601D6F965
:10390000CD0EA211AE05CC0BD304A403BAFD5FFD0E
:1039100001F46FF2810A79060B1DCA222DFCE7FE25
:10392000B1F9DBEC7FFC37FCED01621896133E0128
:103930003A04E6FA9CEDED076A07F7084125500BBB
:10394000EA07741C8BFD0FF4190220FA750415198F
:10395000FB0B9C1086245A0B4301E70622FF100B39
:10396000E10341F6560579074DFA97F35FE957ED04
:103970008BEE72E61B01360EEC2099297A094BFC7E
:1039800035E2EEDB25E641E86CEAE7F0040CB3171C
:10399000E41065FF9A039CF594F92D097BF36E12F0
:1039A0005B0DE1FCEE12A4FE32EFEF010705D30B35
:1039B00089201003F406920EB2EC33F02EEF9EF342
:1039C000CFFF5EF3ACEB34FA7EFA6AF83DFD64F0AB
:1039D00083F46FF988FAD7FB18E900D118CFE3DF39
:1039E00084E392F513059607EB16A50DF0FC4BEF5B
:1039F000D0DBD9DEAFF3F5F51D0DD02B391B1C251F
:103A00004310A6EE15F55BEAC4F79908481BF61FAC
:103A1000DA184C0B2BF5B7F488ED6AF87DFDB1FE92
:103A20008B0F7E0F950309F6DBF10FF448EE9EF243
:103A30007100B0FD4D102809DDF8650CE8FB60FA57
:103A40006404DDF040FF4F0FECF7930BEB0AD3F16A
:103A50007C158F08E4FD720971F1DAF6F303AE0507
:103A600016069708060A0D09910657FC08F597F502
:103A7000ABED0FEB9A04900AA60FC51A7406E40387
:103A8000F0FC74E57CF45A04E9FD410AAD153B05F0
:103A9000B9F92EFF72F474F4F1050DFA8005BD0A30
:103AA0006DF4BFFC6BFBACE9AFF393FD75E9730AF2
:103AB000E10ED6F1A41067F06ADF97FC74EC7BF896
:103AC00084123B06330CBE0F74F47DFE70F59CDF50
:103AD00029EFC3F46BFB5D0BAC128B0FAA0CEEF657
:103AE0003FEF98F62BF031F884FE3A0B420C7E0D36
:103AF000E80F24F107F2BB05F400C9056DFB5BE597
:103B00000A08DB13BCFBF40771F15AE85FFC28ECF0
:103B1000EFFF4110E6FA6F089914AFFA1EFB35FE6D
:103B2000ABEDE2FF4CF89AF0430010F6D3FCE80747
:103B3000280789119E1BF90D9A100109D4E61CEE85
:103B400022F0B3F7070C75091F19AF223A12B70814
:103B5000BF04D8FD42FEF2018206480E30107A09F9
:103B60003C0289FCF4F24EF17B05AA1A981FB318A7
:103B7000E20453F776EA1AE3F0E8A5F3D504FC0E65
:103B8000FA172E0C0603940061FCE7FF77F4D0F5DA
:103B9000D7F563F9890486099F0910038D029AF607
:103BA000A7F108F3B1F85708550B9A046C05690B97
:103BB0004C001100FDFEABF441FDA0FF830837026D
:103BC000D4F39CFBAAFA2102620476069F10140F1C
:103BD0005416F91ACC056CF721FC17F54FF904FDC2
:103BE00071F79BFF5B07B6065C08370A4D01650756
:103BF00063075DFE16003FFED4001606DF0A670568
:103C00002BFB3EFB560018FE08FA7AF62AF91F0A2B
:103C1000DD0B6307410805085D060CFE96FF3202C6
:103C2000F0F656F891F960F3420D1711610ACC12C3
:103C300084FCBDFF63074DFAB5FB1BFAC3F900080E
:103C4000820D27FE0001B906CF002C00DCF59DF7A0
:103C5000EAFF0A08D21046025DFF39009EF941F5DD
:103C60000BEFE2F844034E0CF90862041E08370219
:103C7000AF00DFF520EC87F85804840417089002A1
:103C80006FF9B50425FF5FF0CFF35CFC1509FD1358
:103C9000C3155F0A85070C07ACF0A4E95CEFF0E7F9
:103CA000C2F8C5071804C4179614300314073FFC64
:103CB00089F6F700EAF8FAF62BFCD4F82802E8FBBC
:103CC000E5F818FFE301510DA70DA50CE90AF70867
:103CD00085007DFEA3FBA3F4050042FE11FF7107E2
:103CE0003605ECFF950AB80BD3FC9606A5F8B7EDA0
:103CF000A4FE85F96BF5DB005E00A0FFB1120F0D8D
:103D00006307080F3900D1FEA4045BF82DFC420DB7
:103D10006B03A704460F0A017CFC07FFD5FC790161
:103D200004058A006E054307A9FD51FFA4FCE4F6D3
:103D300082FF7C03BBFE00015D0416067F0327FFA4
:103D400035FE4FF92DFB8403F30AE608F709F40E5C
:103D500042FF37FBC8FA15F097FB120253FE980595
:103D6000A800D8FDE1084E03CD015F0AF8058E05D5
:103D700074066CFEB3F603F3F9F312F567F8160058
:103D80003D0B3D1A281DA213F10C5C0314FB43FAF2
:103D9000E4F0CAEC26FCFA03E20AE5142913E9125E
:103DA000C412E40967FE71007DFFCDFBE102BAFC9D
:103DB000A6FBCB0203017E017B054C064108090AE4
:103DC000750305FFB1F738F64FFA8BF5FBFE2006B9
:103DD00014002604640384FE5901EBFBB5FB950235
:103DE0006EFEB00410043AF59EFA35FEEFF9D3FDED
:103DF0002D017004E7067F034300F1FEF6F851F948
:103E00009FFDD4017F09800E75108B0820015DFE97
:103E100032FCA5FA97F371F22CFF9D0C250D140EC0
:103E2000540D2A072E0A47066AF973F610F722F98D
:103E30000803BC01C7FD70035FFD6301730B8301C1
:103E4000D303A2053FFD9FFE2DF5EFF378F687F132
:103E5000EBFCA4040F08930A4507FF04A5060B0317
:103E600082FD29FE13F7D3FEA204F9F916F829F80A
:103E7000F5FB7BFFF0026802FE015607BE078E04C9
:103E800067FEABF6A3F2ACF74FFA1CFD33FFB6FEAC
:103E90001408D7076F00A8FB1EFA1600C602FA0323
:103EA00004FE31F87CFB6FF916F89FFC27FFA20592
:103EB000261143096500F10537FCEDF981FCF7F4A3
:103EC00056003F05D8FE8E0462066705EE034CFEE1
:103ED0009AF781FBAA0045FA62FE95FDD4FAAE0579
:103EE0000405880053FD14F4A7F762FD64F768FB2E
:103EF00010FC1AFE30098C0460FF37FCA5F8ABFDFE
:103F0000C4FD38F765F8B6F766FCD009310092FBBE
:103F10002103E8FBE5FED70298F62FFA3503BC0132
:103F2000E307CD0244F7CFFA07FEE0FE02FF99FB5C
:103F30005C01B106390238041DFF86F56BFD1701DF
:103F4000ECFE3A0399009E005003110084FE62F8D3
:103F5000D4F864FEA9FC58FEDAFD52FB75FD510051
:103F60000301BB00630194015C03980467FFCEF773
:103F7000A2F8D2FAEBFBFCFC32FAE6013D0517028F
:103F8000C307D70202FE2802B6FEFCFB82FEF6FF44
:103F90008405DC088CFFB7FCD2006EFD25FF4D02C6
:103FA00030FD24FEB20704049AFCB6FFB4FF94016E
:103FB000A5FF43FAFEFFC1031A031A05270067F99C
:103FC000D5FDE7FED6F9E6FB04FECEFE3B05540721
:103FD00077022D03A5057304270028FB5AFDAEFECA
:103FE0009CFC9701D70273FF04055F04DDFF70029C
:103FF000F9001202DE0140004D014CFE4D01D900D6
:10400000E3FBDE000F005DFEB406150382FDBB007E
:1040100042FE40FF3E02E801BE01BE0003029503DE
:104020007D06B00206FC16FFF8FE32019304DDFDAA
:10403000F1FE5304B8033E071504A1FCE0FF40FF66
:1040400002FEE0FE64FCC7FFDB009C016405A000EB
:10405000B6FF860323017703ED02C9FC6000C802A6
:1040600009FF86030604B1FEF803FA0415FEF8FC06
:1040700000FFA4FEC000FE010EFFBC026506370370
:104080006D019FFDBEFA3FFEBAFC06FC9BFF49FE98
:10409000C4FD02004FFF13FF16004EFEC7FDCCFF0C
:1040A0006F0002FF25003FFE8EFC3DFF9BFED7FC0C
:1040B000D2FB0A007C03CD020A0182FFA500340076
:1040C00054002A017BFF96FE0301A2FF89FEBBFF7D
:1040D00085FFA60156007DFE7DFE0000FF7F627F0A
:1040E0008A7D7D7A4276E3706E6AF262825A34513A
:1040F0001D47573CFC302825F9188C0C000074F340
:1041000007E7D8DA04CFA9C3E3B8CCAE7EA50E9DED
:1041100092951D8FBE89838576829E8000809E80C9
:1041200076828385BE891D8F92950E9D7EA5CCAE2D
:10413000E3B8A9C304CFD8DA07E774F300008C0C06
:10414000F9182825FC30573C1D473451825AF26239
:104150006E6AE37042767D7A8A7D627F00008C0C05
:10416000F9182825FC30573C1D473451825AF26219
:104170006E6AE37042767D7A8A7D627FFF7F627F1E
:104180008A7D7D7A4276E3706E6AF262825A345199
:104190001D47573CFC302825F9188C0C000074F39F
:1041A00007E7D8DA04CFA9C3E3B8CCAE7EA50E9D4D
:1041B00092951D8FBE89838576829E8000809E8029
:1041C00076828385BE891D8F92950E9D7EA5CCAE8D
:1041D000E3B8A9C304CFD8DA07E774F300000000FE
:1041E0001100000012000000130000001400000085
:1041F0001700000018000000000000000000000090
:1042000000000000000000000000000000000000AE
:10421000000000000000000000000000000000009E
:10422000000000000000000000000000000000008E
:10423000000000000000000000000000000000007E
:10424000000000000000000000000000000000006E
:10425000000000000000000000000000000000005E
:10426000000000000000000000000000000000004E
:10427000000000000000000000000000000000003E
:10428000000000000000000000000000000000002E
:10429000000000000000000000000000000000001E
:0842A000AF1700005B000000F5
:04000005080000ED02
:00000001FF
