:020000040800F2
:10000000C0040020010100082501000827010008A4
:10001000290100082B0100082D0100080000000044
:100020000000000000000000000000002F01000898
:10003000310100080000000033010008350100080C
:1000400037010008370100083701000837010008B0
:1000500037010008370100083701000837010008A0
:100060003701000837010008370100083701000890
:100070003701000837010008370100083701000880
:100080003701000837010008370100083701000870
:100090003701000837010008370100083701000860
:1000A00037010008A310000837010008090F0008F5
:1000B000BD100008E1120008911400083701000883
:1000C0003701000837010008370100083701000830
:1000D0003701000837010008370100083701000820
:1000E000370100083701000837010008DFF80CD09D
:1000F00001F074FE00480047411E0008C0040020C3
:100100000D488047DFF83400016841F4E0210160C8
:10011000BFF34F8FDFF82800DFF8281001600A488E
:1001200000477047FEE7FEE7FEE7FEE7FEE7FEE773
:10013000FEE7FEE7FEE7FEE72301000824ED00E00E
:100140000CED00E00003FA05ED000008014601296E
:1001500001D1002231E0B1F5807F01DD012200E014
:100160000022D21D802901DD012300E000231A4472
:10017000402901DD012300E000231A44102901DD9C
:10018000012300E000231A44082901DD012300E0D7
:1001900000231A44042901DD012300E000231A444E
:1001A000022901DD012300E000231A44012901DDB9
:1001B000012300E000231A4412011046702800D1E8
:1001C0000020704710B583202C490860002048604B
:1001D00088602B4848600120FFF7B8FF274949682D
:1001E0000843264948600020264908600846006800
:1001F00040F0020008602148006840F480301F4948
:10020000086000BF1D48006810F4003FFAD01B488A
:10021000006840F080701949086000BF1748006806
:1002200010F0007FFAD01548406820F00300134911
:1002300048600846406840F0020048600846406850
:1002400040F4800048600F48006840F010000D49FD
:10025000086010BD01460C48814202D00B48814223
:1002600001D10B4870470A48FCE709487047094824
:100270007047074870470848704700000010024068
:1002800000841D0000200240002C01400034014089
:1002900000A24A0400512502001BB7002DE9F041DD
:1002A0000446584FBC4207D1574FBF6947F0040777
:1002B000DFF854C1CCF81870544FBC4207D1524FEC
:1002C000BF6947F00807DFF840C1CCF81870504FFD
:1002D000BC4207D14C4FBF6947F01007DFF828C177
:1002E000CCF818704B4FBC4207D1474FBF6947F05D
:1002F0002007DFF814C1CCF81870474FBC4207D173
:10030000414FBF6947F04007DFF8FCC0CCF81870D8
:1003100000200F2900DD0120692A01D0492A02D1DD
:10032000032B00D10120032B00DD0120692A06D018
:10033000492A04D06F2A02D04F2A00D00120692A0E
:1003400001D0492A00D100266F2A01D04F2A00D1BE
:100350000126082928DA27684FEA810C0CF1020CE3
:100360004FF0030808FA0CF827EA08072760276807
:100370004FEA810C0CF1020C03FA0CFC47EA0C0763
:10038000276027684FEA81084FF0030C0CFA08FC3D
:1003900027EA0C07276027684FEA810C06FA0CFC55
:1003A00047EA0C0727602AE0A1F10807FDB2676859
:1003B0004FEA850C0CF1020C4FF0030808FA0CF818
:1003C00027EA0807676067684FEA850C0CF1020CA2
:1003D00003FA0CFC47EA0C07676067684FEA850878
:1003E0004FF0030C0CFA08FC27EA0C0767606768FB
:1003F0004FEA850C06FA0CFC47EA0C076760BDE87B
:10040000F08100000008014000100240000C014093
:100410000010014000140140001801402DE9F34F85
:100420008FB00646F948864205D1F948806940F404
:100430000060F7498861B6F1804F05D1F448C06982
:1004400040F00100F249C861F248864205D1F04807
:10045000C06940F00200EE49C861EF48864205D10C
:10046000EB48C06940F00400E949C8613046FFF735
:10047000F1FE0E900E9801F05CFB0A90109901F0CD
:1004800057F90B9001F094FB0022E44BCDE90C01ED
:1004900001F0D7FA044601F0CFFB8246504601F046
:1004A00087FB0022DE4BCDE90C0101F0CAFA0446BD
:1004B00001F0C2FB8146484601F066FB401C87B252
:1004C000384601F036FB04462146504601F062F9F9
:1004D0008046781E3085404601F056FB401EB085B0
:1004E000404601F051FB401EB0840E9801F026FBFF
:1004F000CDE90A01308D01F01CFB039001F058FB9F
:1005000004460022C74B01F083F9CDE90601B08D06
:1005100001F00FFB019001F04BFB04460022C14BA0
:1005200001F076F90022BD4BCDE9020101F017FA86
:10053000CDE90401DDE9062301F011FACDE9080156
:10054000DDE90A2301F07DFACDE90C0101F074FB2D
:10055000834611203080584611B0BDE8F08F2DE958
:10056000F04704460D46A948844205D1A848806951
:1005700040F40060A6498861B4F1804F05D1A448D9
:10058000C06940F00100A249C861A248844205D177
:100590009F48C06940F002009D49C8619E4884425E
:1005A00005D19B48C06940F004009949C861FFF734
:1005B0005CFE81462046FFF74DFEB9FBF0F8B5FB27
:1005C000F8F52E0C761CB5FBF6F7701E2085781E0C
:1005D000A085A08411202080BDE8F08710B58B4B4A
:1005E000984205D18A4B9B6943F40063884CA36110
:1005F000B0F1804F05D1864BDB6943F00103844C99
:10060000E361844B984205D1814BDB6943F00203DF
:100610007F4CE361804B984205D17D4BDB6943F011
:1006200004037B4CE361838943F0010383810F2939
:1006300000DD0F21754B98420DD17B4B1A600B07E3
:100640001C0E7A4B1C707A4B1B6843F000734FF002
:10065000E024C4F80031B0F1804F0DD1754B1A6021
:100660000B071C0E744B1C70714B1B6843F08053BE
:100670004FF0E024C4F80031664B98420DD16F4B27
:100680001A600B071C0E6E4B1C70694B1B6843F005
:1006900000534FF0E024C4F800315F4B98420DD175
:1006A000684B1A600B071C0E674B1C70604B1B6875
:1006B00043F080434FF0E024C4F8003110BD70B522
:1006C000524CA04205D1524CA46944F40064504DF0
:1006D000AC61B0F1804F05D14D4CE46944F00104A8
:1006E0004B4DEC614B4CA04205D1494CE46944F0C0
:1006F0000204474DEC61484CA04205D1444CE469EA
:1007000044F00404424DEC610F2A00DD0F223F4CFF
:10071000A0420BD11407250E4C4C2570444C246884
:1007200044F000644FF0E025C5F80041B0F1804F7F
:100730000BD11407250E404C25703D4C246844F025
:1007400080544FF0E025C5F80041324CA0420BD157
:100750001407250E3A4C2570354C246844F000549B
:100760004FF0E025C5F800412B4CA0420BD11407F7
:10077000250E354C25702E4C246844F080444FF0F3
:10078000E025C5F80041214CA04221D1012906D025
:1007900002290AD003290ED0042918D111E02C4CCB
:1007A000236001242B4D2C7011E02B4C236001247D
:1007B0002A4D2C700BE02A4C23600124294D2C700B
:1007C00005E0294C23600124284D2C7000BFACE0CB
:1007D000B0F1804F5FD1012906D002290AD0032948
:1007E0000ED0042956D14FE0214C23600124214D25
:1007F0002C704FE0204C23600124204D2C7049E0E8
:100800001F4C236001241F4D2C7043E0002C01403D
:1008100000100240000400400008004080842E4187
:100820000000F0400000F03F0000002019E400E06C
:1008300000E100E0040000201CE400E008000020CB
:100840001DE400E00C0000201EE400E01BE400E0DA
:1008500020000020100000202400002011000020B3
:1008600028000020120000202C000020130000208F
:10087000300000201400002034000020150000206B
:100880003800002016000020FE4C23600124FE4D9D
:100890002C7000BF49E0FD4CA04221D1012906D0B7
:1008A00002290AD003290ED0042918D111E0F84CEE
:1008B00023600124F74D2C7011E0F74C23600124D4
:1008C000F64D2C700BE0F64C23600124F54D2C7096
:1008D00005E0F54C23600124F44D2C7000BF24E0AA
:1008E000F34CA04221D1012906D002290AD00329C4
:1008F0000ED0042918D111E0EE4C23600124EE4DF6
:100900002C7011E0ED4C23600124ED4D2C700BE0B8
:10091000EC4C23600124EC4D2C7005E0EB4C236083
:100920000124EB4D2C7000BF00BF012901D002292A
:1009300011D1058B4C1E042606EBC4060724B440D7
:10094000A5430583058B4C1E042606EBC406012433
:10095000B44025430583032901D0042911D1858B97
:10096000CC1E042606EBC4060724B440A5438583A9
:10097000858BCC1E042606EBC4060124B440254317
:100980008583848901258D402C43848170BD70B599
:1009900004460D46164631462046FFF7E0FD012D80
:1009A00001D0022D18D1208B691ECA00032191406D
:1009B00088432083218B681E042202EBC00207209B
:1009C000904081432183218B681E042202EBC002E8
:1009D0000620904001432183032D01D0042D18D11E
:1009E000A08BE91ECA00032191408843A083A18BFC
:1009F000E81E042202EBC002072090408143A1833D
:100A0000A18BE81E042202EBC002062090400143A5
:100A1000A183218C681E012202EB800201209040FC
:100A200081432184208C691E8A0001219140084362
:100A30002084A848844205D1B4F8440040F4004022
:100A4000A4F84400A08D401C80B270BD2DE9F05F79
:100A5000804689469246504601F0AAF8064632463C
:100A60000B4600209C4900F0ECFF044601F0E4F83E
:100A7000834659464046FFF7D1FCB9F1010F02D039
:100A8000B9F1020F21D1B8F81800A9F10101CA008B
:100A9000032191408843A8F81800B8F81810A9F16C
:100AA0000100042202EBC002072090408143A8F815
:100AB0001810B8F81810A9F10100042202EBC002C6
:100AC000062090400143A8F81810B9F1030F02D096
:100AD000B9F1040F21D1B8F81C00A9F10301CA0033
:100AE000032191408843A8F81C00B8F81C10A9F114
:100AF0000300042202EBC002072090408143A8F8C3
:100B00001C10B8F81C10A9F10300042202EBC0026B
:100B1000062090400143A8F81C10B8F82010A9F155
:100B20000100012202EB8002012090408143A8F8DD
:100B30002010B8F82000A9F101018A00012191409C
:100B40000843A8F820006348804505D1B8F8440060
:100B500040F40040A8F84400B8F82C00401C80B2D3
:100B6000BDE8F09F5D49896941F400615B4A91618C
:100B7000584920310988421E9200921C012393405B
:100B80001943544A2032118011460988421E9200AE
:100B9000D21C0123934099434E4A20321180704762
:100BA00010B502464B4B9A4205D14C4B9B6943F41E
:100BB00000634A4CA361B2F1804F05D1474BDB691A
:100BC00043F00103454CE361304B9A4205D1434B5E
:100BD000DB6943F00203414CE361354B9A4205D196
:100BE0003E4BDB6943F004033C4CE3610020138976
:100BF00023F007031381012903D0022901D003291F
:100C000003D113890B43138100E00120138B23F0E0
:100C100003031383138B43F001031383138B23F418
:100C200040731383138B43F480731383138C23F06B
:100C300002031384138C23F020031384138823F0FE
:100C400001031380138843F0010313804FF6FF73F1
:100C5000938510BD2DE9F04F8FB004460D46174621
:100C60009846189E1B48844205D11C48806940F470
:100C700000601A498861B4F1804F35D11748C069C6
:100C80002EE000003C00002017000020000400407F
:100C9000400000201800002044000020190000201F
:100CA000480000201A0000204C0000201B000020FB
:100CB00000080040500000201C00002054000020CC
:100CC0001D000020580000201E0000205C000020B5
:100CD0001F000020002C014000408F400010024007
:100CE00040F00100FE49C861FE48844205D1FC483D
:100CF000C06940F00200FA49C861FB48844205D14E
:100D0000F748C06940F00400F549C8612046FFF784
:100D1000A1FA0020A085404600F00BFF059000F0EE
:100D200047FFCDE90801384600F042FFEF4AF04B9B
:100D3000CDE9040100F013FECDE90601DDE9082349
:100D400000F07FFECDE90A0100F076FF81460E98A3
:100D500000F0EFFE49460B9000F0EAFC8246504658
:100D600000F026FF0022E34BCDE90A0100F034FF3A
:100D700002D201200C908CE0504600F019FF0022B6
:100D8000DD4BCDE90A0100F03FFF02D201200C90BB
:100D90007FE0504600F0F8FE401E2085012D01D076
:100DA000022D0DD1208B691ECA000321914088437A
:100DB0002083208B691ECA000121914008432083B3
:100DC000032D01D0042D0DD1A08BE91ECA000321F3
:100DD00091408843A083A08BE91ECA000121914065
:100DE0000843A083218C681E012202EB80020120AF
:100DF000904081432184208C691E8A00012191400A
:100E0000084320840F2E00DD0F26BC4884420BD1FE
:100E10003007010EBA480170BA48006840F000601F
:100E20004FF0E021C1F80001B4F1804F0BD1300741
:100E3000010EB5480170B348006840F080504FF093
:100E4000E021C1F80001A74884420BD13007010E10
:100E5000AE480170AB48006840F000504FF0E02110
:100E6000C1F80001A04884420BD13007010EA84808
:100E70000170A448006840F080404FF0E021C1F8C4
:100E80000001A0894FF0010101FA05F140EA0100DB
:100E9000A0814FF001002080218D01F1010000F0C0
:100EA0003FFE059000F084FECDE908010E9800F0A9
:100EB00040FE019000F07CFECDE90401384600F0D0
:100EC00077FE8A4A8A4BCDE9000100F048FDCDE962
:100ED0000201DDE9042300F042FDCDE90601DDE970
:100EE000082300F0AEFDCDE90A0100F0A5FE0D904B
:100EF0000D9800F030FE1FFA80FB4FF6FF70A085C2
:100F000058460FB0BDE8F08F10B57C48103000880F
:100F100000F0020002282BD178481030008820F021
:100F200002007649103108807A480078012802D101
:100F300079480068804771482030008810F0020F1F
:100F400005D16E48343000887449088007E06B484A
:100F50003430008871490988401A7149088067480F
:100F60002030008880F0020064492031088097E03A
:100F700062481030008800F0040004282BD15F483C
:100F80001030008820F004005C491031088065486A
:100F90000078012802D16448006880475748203013
:100FA000008810F0200F05D15448383000885B4984
:100FB000488007E051483830008858494988401A2D
:100FC000574948804D482030008880F020004B4928
:100FD0002031088064E049481030008800F00800A3
:100FE00008282BD145481030008820F008004349DC
:100FF000103108804D480078032802D14C48006821
:1010000080473E482030008810F4007F05D13B48DF
:101010003C3000884149888007E038483C300088EF
:101020003E498988401A3E498880344820300088EB
:1010300080F4007031492031088031E02F481030B1
:10104000008800F0100010282AD12C4810300088A9
:1010500020F0100029491031088036480078012816
:1010600002D135480068804724482030008810F4B9
:10107000005F05D12148403000882849C88007E03A
:101080001E48403000882549C988401A2449C88034
:101090001A482030008880F4005018492031088018
:1010A00010BD10B515481030008820F0010013491C
:1010B0001031088021480068804710BD10B54FF0FE
:1010C0008040008A00F00100012842D18007808919
:1010D00000F0010001283CD18007008A30E00000C8
:1010E0000010024000040040000800408DEDB5A053
:1010F000F7C6B03E0000F03F0000F040002C014079
:101100001BE400E000E100E01CE400E01DE400E07E
:101110001EE400E0100000202000002080000020DD
:101120006000002011000020240000201200002098
:1011300028000020130000202C00002000000020C8
:1011400020F001004FF080410882FE48006880478F
:10115000C5E04FF08040008A00F0020002282AD14A
:101160004007008A20F002004FF080410882F648D4
:101170000078012802D1F548006880474FF0804090
:10118000008C10F0020F05D14FF08040808EF049A6
:10119000088007E04FF08040808EED490988401AB2
:1011A000EC4908804FF08040008C80F002004FF046
:1011B0008041088493E04FF08040008A00F00400F2
:1011C00004282AD10007008A20F004004FF0804153
:1011D0000882DD480078012802D1DF480068804796
:1011E0004FF08040008C10F0200F05D14FF0804070
:1011F000008FD749488007E04FF08040008FD449E6
:101200004988401AD34948804FF08040008C80F0D4
:1012100020004FF08041088461E04FF08040008A58
:1012200000F0080008282AD1C006008A20F0080033
:101230004FF080410882C9480078012802D1C8488F
:10124000006880474FF08040008C10F4007F05D18B
:101250004FF08040808FBE49888007E04FF080408B
:10126000808FBB498988401ABA4988804FF08040F6
:10127000008C80F400704FF0804108842FE04FF024
:101280008040008A00F01000102828D18006008AD3
:1012900020F010004FF080410882B2480078012809
:1012A00002D1B148006880474FF08040008C10F4B4
:1012B000005F04D1AD480088A549C88007E0AB486D
:1012C0000088A349C988A0EB0100A249C8804FF05B
:1012D0008040008C80F400504FF08041088410BDA5
:1012E00010B5A348008800F00100012810D1A048E3
:1012F000001F008800F00100012809D19C480088E7
:1013000020F001009A4908809A4800688047BEE0B2
:101310009748008800F00200022829D194480088EC
:1013200020F002009249088093480078012802D1F9
:101330009248006880478E481030008810F0020FF5
:1013400005D18B48243000888D49088007E0884803
:10135000243000888A490988401A8A4908808448CC
:101360001030008880F002008149103108808EE042
:101370007F48008800F00400042829D17C480088B8
:1013800020F004007A4908807F480078012802D1C3
:101390007E480068804776481030008810F0200FA3
:1013A00005D17348283000887549488007E07048A7
:1013B0002830008872494988401A724948806C4830
:1013C0001030008880F020006949103108805EE00C
:1013D0006748008800F00800082829D16448008880
:1013E00020F008006249088069480078012802D18D
:1013F0006848006880475E481030008810F4007F1D
:1014000005D15B482C3000885D49888007E058484A
:101410002C3000885A498988401A5A498880544893
:101420001030008880F400705149103108802EE09F
:101430004F48008800F01000102828D14C48008840
:1014400020F010004A49088053480078012802D152
:1014500052480068804746481030008810F4005F0A
:1014600005D14348303000884549C88007E04048EE
:10147000303000884249C988401A4249C8803C48F7
:101480001030008880F4005039491031088010BDB8
:1014900010B54348008800F00100012810D14048F1
:1014A000001F008800F00100012809D13C48008895
:1014B00020F001003A4908803A4800688047FAE085
:1014C0003748008800F00200022829D134480088FB
:1014D00020F002003249088033480078012802D108
:1014E0003248006880472E481030008810F0020F04
:1014F00005D12B48243000882D49088007E0284872
:10150000243000882A490988401A2A49088024483A
:101510001030008880F00200214910310880CAE0B4
:101520001F48008800F00400042865D11C4800888A
:1015300020F004001A4908801F480078012841D192
:101540001E483DE00400002015000020300000206F
:1015500088000020680000203400002016000020D1
:1015600038000020170000203C0000204000004010
:101570001004004008000020180000204000002057
:10158000900000207000002019000020440000207E
:101590001A000020480000201B0000204C00002002
:1015A000100800400C0000201C000020500000200B
:1015B00098000020780000201D000020540000202A
:1015C000006880474E48008810F0200F05D14C4835
:1015D000183000884B49488007E049481830008897
:1015E00048494988401A484948804548008880F061
:1015F0002000434908805EE041481038008800F030
:101600000800082828D13E481038008820F008003B
:101610003B49103908803D480078012802D13C48F8
:10162000006880473648008810F4007F05D13448B0
:101630001C3000883349888007E031481C3000881E
:1016400030498988401A304988802D48008880F4C4
:1016500000702B4908802EE029481038008800F0DF
:101660001000102827D126481038008820F01000DC
:1016700023491039088027480078012802D12648DC
:10168000006880471E48008810F4005F05D11C48A0
:10169000203000881B49C88007E0194820300088A6
:1016A0001849C988401A1849C8801548008880F42C
:1016B00000501349088010BD10B50246174B9A42DE
:1016C00004D14B1E164C34F8130017E0B2F1804FD2
:1016D00004D14B1E134C34F813000FE0124B9A4206
:1016E00004D14B1E114C34F8130007E0044B203B8F
:1016F0009A4203D14B1E044C34F8130010BD000075
:101700002008004098000020780000201E000020E3
:10171000580000201F0000205C000020002C014029
:1017200060000020680000200004004070000020DD
:1017300080EA010210B502F00043400022D04A00C6
:101740001FD0010E01EB1261C0F35600C2F3560226
:1017500040F4000042F40002A0FB022000047F39A4
:10176000140400D0401C50EA124001D44000491E2D
:10177000C2B20C0604EBD010401C4008802A02D0F4
:1017800003E0002010BD20F00100002900DA002055
:10179000184310BD30B480EA010202F0004530F079
:1017A000004221F0004013D090B1C30DD40DC2F31C
:1017B0001601C0F31600E41A41F4000140F40002DF
:1017C0007D34914201D3641C00E04900002C02DA10
:1017D00030BC002070474FF400000023914201D339
:1017E000891A034340084FEA4101F7D151B19142B0
:1017F00002D14FF0004105E002D24FF0010101E0BB
:101800006FF0010103EBC450284430BC00F051BA22
:101810002DE9FE4F804681EA0300C00F0C46009080
:1018200021F0004123F00045B8EB0200A94105D2A8
:101830004046214690461C460B46024623F0004097
:10184000104347D0270DC7F30A00C3F30A51029093
:10185000401A019040286BDAC3F3130040F4801B58
:101860000098924620B10023D2EB030A63EB0B0BE6
:1018700001985946C0F14002504600F0F9F9064679
:101880000D4650465946019A00F001FA10EB080047
:101890006141002487EA115284EAE7731A4340D079
:1018A000009A62B3019A012A4FEA075215DC001B25
:1018B00061EB02014FF0004202EA0752CDE900421B
:1018C000001C41F5801132462B4600F038FA03B077
:1018D000BDE8F08F40462146F9E7001B61EB0201AD
:1018E000001C41F5801300185B412018A2F5001779
:1018F00047EB030140EAD570B6196D4111E06D0860
:101900004FEA360645EAC0754FEA0752001B61EB05
:101910000201001C41F5801149084FEA300000190E
:10192000514132462B4603B0BDE8F04F00F0F8B904
:101930000098012240000023D0EB020263EBE07329
:10194000009821464FEAE074B8EB000061EB040117
:10195000E9E783F000435BE781F0004158E72DE9B8
:10196000FE4F81EA030404F0004421F0004100949A
:101970004FF0000B23F0004350EA01045ED052EA1E
:1019800003045BD0C3F30A54C1F30A552C44A4F2F8
:10199000F3340194A0FB0254C1F3130141F480110C
:1019A000C3F3130343F4801301FB024400FB034E13
:1019B000840A970A44EA815447EA8357A4FB0768DC
:1019C00002958D0A05FB07854FEA932C04FB0C5406
:1019D0002705029D4FEA065847EA1637B5EB08057A
:1019E0006EEB070C870E920E47EA811742EA8312CC
:1019F000A7FB0201B6EB0B0164EB00042B0D43EADD
:101A00000C335E1844EB1C50DA465146E7FB0201EA
:101A1000C5F313044FEA0B3343EA14534FEA04327D
:101A2000019C43EA0603A4F10C040294009CCDE956
:101A300000B400F084F903B0BDE8F08F0020014647
:101A4000F9E72DE9F04D81EA030404F0004B21F0A1
:101A5000004514464FF0000A23F0004150EA050209
:101A600020D054EA01021DD0C5F30A570246C5F33F
:101A70001303C1F31300C1F30A5640F4801543F475
:101A80008013A7EB0608101BD64608F2FD3873EB4F
:101A9000050002D308F1010801E092185B41B8F19A
:101AA000000F03DA00200146BDE8F08D00204FF45E
:101AB0008011064684460EE0171B73EB050705D31D
:101AC000121B63EB050306434CEA010C49084FEA7D
:101AD000300092185B4150EA0107EDD152EA030051
:101AE00012D082EA040083EA0501084305D0101BE6
:101AF000AB4106D20122002306E000224FF0004352
:101B000002E06FF0010253101AEB06004CEB085193
:101B100010EB0A0041EB0B01BDE8F04D00F000B9FD
:101B2000C10F80EAE0700844CA079623002100F044
:101B3000C9B896230022114600F0C4B80EB540F291
:101B4000334102910021CDE900110A460B4600F015
:101B5000F6F803B000BD00F0004220F00040C10DD7
:101B6000C0F3160040F400007F2901DA002070471E
:101B7000962903DCC1F19601C84001E096398840FE
:101B8000002AF4D04042704720F00040C10DC0F35D
:101B9000160040F400007F2901DA002070479629E2
:101BA00003DCC1F19601C840704796398840704700
:101BB00000F0004230F000400AD0C10D01F5607124
:101BC000C0F3160042EA0151C208400711437047B2
:101BD000002001467047000030B5041E71F100047A
:101BE00004DB4FF00044404264EB0101141E73F12A
:101BF000000405DB1C464FF00043524263EB040334
:101C00008B4208BF824230BD30B5041E71F1000422
:101C100004DB4FF00044404264EB0101141E73F1F9
:101C2000000405DB1C464FF00043524263EB040303
:101C3000994208BF904230BD01F0004330B421F01A
:101C4000004150EA010206D00A0DA2F56072C1F30C
:101C50001301002A02DC30BC00207047440F44EA24
:101C6000C104C100E01830BC00EBC25000F021B844
:101C7000202A04DB203A00FA02F10020704791404C
:101C8000C2F1200320FA03F3194390407047202A41
:101C900006DBCB17203A41FA02F043EAE07306E094
:101CA00041FA02F3D040C2F12002914008431946A4
:101CB00070470029A8BF7047401C490008BF20F0AA
:101CC0000100704710B4B0FA80FC00FA0CF050EA42
:101CD000010404BF10BC704749B1CCF1200421FAC3
:101CE00004F411FA0CF118BF012121430843A3EBBE
:101CF0000C01CB1D4FEA00614FEA102042BF0020CB
:101D000010BC704700EBC35010440029A4BF10BCA6
:101D10007047401C490008BF20F0010010BC70470C
:101D200010B5141E73F1000408DA401C41F10001E3
:101D300092185B411A4301D120F0010010BD2DE93A
:101D4000F04D92469B4611B1B1FA81F202E0B0FA31
:101D500080F220329046FFF78BFF04460F4640EAA0
:101D60000A0041EA0B0153465A46084313D0114674
:101D700053EA010019D0C8F14002504600F040F883
:101D800005460E46504659464246FFF771FF084346
:101D900005D0012004E020463946BDE8F08D002042
:101DA000054346EAE0762C4337430A986305E40A84
:101DB000A0EB08000022FD0A44EA47540A3002D58D
:101DC00000200146E9E7010510196941DDE90845F0
:101DD00000196941BDE8F04DA2E70000064C074D2F
:101DE00006E0E06840F0010394E8070098471034EB
:101DF000AC42F6D3FEF77EF9181F0008381F000822
:101E0000202A04DB203A21FA02F00021704721FA4F
:101E100002F3D040C2F120029140084319467047B6
:101E200002E008C8121F08C1002AFAD170477047A3
:101E3000002001E001C1121F002AFBD17047000001
:101E400000201949086019480068486018488860EF
:101E50001848006800EBC000C0000861FEF7B2F946
:101E600002236F2200211448FEF718FA0E48006979
:101E7000032190FBF1F422461048FEF788FD0A4941
:101E8000C860084601690E48FEF769FB0D4A022149
:101E90000B48FEF7A3FB0A48008840F00100084900
:101EA000088000BFFEE70000A8000020A00000207E
:101EB000381F0008A4000020000C0140000400406E
:101EC00000080040C91E0008114812490268436812
:101ED0009A4214D22DE98001876837F912C00CF5B7
:101EE000004CD0F80C800CFB08FC4FEA1C4C02F1B3
:101EF00001020260C1F800C0BDE8800106E0D0F830
:101F00000CC04FEA5C0CC1F800C0FFE7704700004E
:101F1000A80000203C040040984E0008000000206B
:101F2000A8000000201E0008404F0008A800002064
:101F300018040000301E000800000000000000002F
:101F40000000000000000000000000000000000091
:101F50000000000000000000000000000000000081
:101F60000000000000000000000000000000000071
:101F70000000000000000000000000000000000061
:1024800000000000FEFF0000020002000000020049
:102490000000FEFF02000200000000000000FEFF3E
:1024A000FEFF02000200FEFF0000FEFFF9FF000039
:1024B00002000700020002000500FEFF0200FEFF0E
:1024C0000C0007000200F9FFFBFF0A0000000C00EF
:1024D000F1FFF9FF0F0020000700E7FF2F00F4FFD6
:1024E00007002500E5FFCFFF8FFF14008CFF7BFE68
:1024F0008CFE84FE42FE87FE84FEFDFD09FE09FE81
:102500004EFE6EFEA4FE8BFDBAFDF8FEC7FD70FD0B
:10251000FCFCB6007F03E3010603BF02D202D20235
:102520004D02CB024802E8012D01FE019C02B502DA
:10253000A6035203F202A1026302AA016800ED00A1
:10254000830210030D0312033E0279017401570147
:102550006C00EFFF630094010D03DA02D201CA00A0
:10256000D4FFA5FF850085003AFE50FD31005004E0
:10257000110530035201FFFD6BFCF6FE190069FCEA
:1025800038F81BFA20017B067D06630215FE30FD3C
:1025900096FE07FEF2FAAAF852FAD6FED9010F010A
:1025A000ECFDE3FAC3F90DFAF6F9E2F851F80FF988
:1025B000C3FA5AFE1B009FFD76F938F783F941FDF7
:1025C00047FF9FFE81FC46FB5EFB12FC54FAC4F6FB
:1025D0004BF5CEF6DBF90FF973F6E4F639F90DFC9D
:1025E000B5FBF8F788F56CF8A7FF39072E0A6D07D9
:1025F000810125FA6BF5A8F4ADF50BF7BEF955FD91
:1026000078FF6FFF27FE9FFC39FA5BF87AF7A6F692
:1026100075F7A5F9E1FC78FE4DFC50FC83FBCDF489
:1026200041EF24F012F513F60AF328F494FA2C0083
:10263000C2FD04F723F4DDF76301200CD5118910E6
:102640007F0AD201CFF9D9F365F243F568FA71FF39
:1026500001037F0432026AFF18FD08FA51F7F8F708
:10266000D2FA16FF24030F060905E00032FC99F99F
:102670009FF6AFF2D1F03CEDBAF0D8F6D900E904FC
:1026800046047EFA84F0F9F9B9ECE0C85EC442FE73
:1026900087277120B3195628ED2F6815400053F194
:1026A00075EF51F166FBA007CC0BC617EF157E073F
:1026B00023FAB0FBBCF58AEB84F05B003011021901
:1026C0002418270DEA062CFE10EE37E103E1EDE6B3
:1026D0005CED7CFA83074B0A04FEEBEE0DE8BAE7EB
:1026E00024E8D1F74B09E007B803970E7A24753137
:1026F000FA2AB812890346049C092EFE6BF4BEFB2D
:102700000A06860F1D0BE608D9067105F201E602DE
:10271000ED077009750B88075209040B0C078AFA3C
:10272000F8EFA9EA4DE778E92DF35EF986FD5EFB47
:1027300099ED0CE4FDDB9AE1A3E545F262FD6E0C38
:102740002F29012B2D155DFD3A0AB11F582EC027E8
:10275000BA167A18CE1F072148093AFE6FFAFFFD14
:102760008FFF1402940F5C112A147A111B14A30F0B
:102770004F06BAFB24F066F4FBF815F7C0F129F018
:102780003AF5D1F762F283E764DB10D4DED051D1A1
:1027900070D30AE033F1CA0CEB1CCF012DEE6A13A3
:1027A00032528455CC33ED2F6241E139E51A3E01B6
:1027B00088F430F6B1F788015D05260AED0EE109CF
:1027C00042046B0373112A0E53FF60FF5E0F4D101E
:1027D0006506C9FC8FEC18EA5EE6DDE3A7D5D4D028
:1027E0008CCF5DC721C617CBAFDF4AE42CFE7CEF50
:1027F000E3CB18F1BE2A1C4D26627D6BB4509E516E
:10280000D547FF26DD04C2EA36F332EE9AFD781290
:10281000911327141A123B06B804D803C6FB810390
:102820006302BC15F11FFA0FAD02DFEF2DDFE3E00D
:102830008CE42ED430C665A17891988A2498E6B1AC
:10284000ADC52AF9C1E6E8F2BB2FB95FFF7FFF7F74
:10285000FF7FCD6C3864EA4A7E2A1CFB50F50BF7EB
:10286000A2E9AA0197F4F8F748FAF7ED3504E8076A
:102870009010A4182D0ED3183F252F22140FFBF112
:102880007ADC21E129DB84DAC2D0ADAB428D008055
:1028900000800080F08AE6A58CAE35FCA454FF7F52
:1028A000FF7FFF7FFF7FFF7FF95EFC32BE00E4E326
:1028B0004BFC28F525008101CFF129F715DB56D80F
:1028C000A1E091EA1E0975163C2B5B445D498D2BF6
:1028D000770931EADFE79EDECFCBDEC5A895008021
:1028E0000080008000800080FB99CBA35DF8B34D91
:1028F000FF7FFF7FFF7FFF7FFF7F2C789F40D20EFF
:1029000090DBE9E82CEB83F372FBDAE26CE541CD76
:1029100084CE2FD871E4FC020D15802E654B474FF5
:102920003230EE178DFB4BF5DBE3EACA4FB0008087
:1029300000800080008000800080B5A508B1A7FF5E
:10294000415BFF7FFF7FFF7FFF7FFF7FC77D134ED0
:10295000EB1D0EE9C5F250E1A7E2E4EFBBDD18E2A2
:1029600045CAA9CE0CE453F18309FE1AA42C7D4973
:10297000C34B4E2E6F1AB4FF53FFEFECDACC24ACEE
:1029800000800080008000800080008074A835C036
:10299000240CE365FF7FFF7FFF7FFF7FFF7F057ACA
:1029A0003D43B2167FF6D1F8C6E838E33EE5EBDAF0
:1029B0006ADE49CE05D2A8E5FBF8A80EB320AA35F9
:1029C000EA4F13504C28940D78F80EF85EEC26CCA4
:1029D0003BB00080008000800080008000801AA64C
:1029E00010B9E3F95855FF7FFF7FFF7FFF7FFF7F1F
:1029F000FF7FB656DD25D8F8F9FFC3F392DFD2E7A3
:102A000075DC5CE146DAA1D408E85CFB8E0CCD1DD8
:102A1000C32801454750552DC21358FDCCFDAAF8D7
:102A2000E4D4CFB662840080008000800080008003
:102A3000DEAAFBC1F5EE2845FF7FFF7FFF7FFF7F0A
:102A4000FF7FFF7F24631A323106400007F90DE053
:102A5000BFE7D5E0FEDF76DE08D233E4DFF52808F5
:102A6000F91C49204D32C248EF2E5A11010220FABA
:102A700013FDBAE7B9CA3699008000800080008053
:102A80000080BC9797BFA0DED826FF7FFF7FFF7F27
:102A9000FF7FFF7FFF7FC476734839151DF78101E3
:102AA000B0E819DFC2DDBFCE5BD8CECE2FD801EEA5
:102AB0002F000220B1286131C844433E5821040B45
:102AC0006CF9FAF5E6EE0AD126AB008000800080B2
:102AD00000800080978272BF26D54001314FFF7F72
:102AE000FF7FFF7FFF7FFF7FFF7F346D6A3C4103E5
:102AF000A7F70EF100D885DF9ED245D202D688D145
:102B000061E870038314C4256C27AC35BD420D23E6
:102B1000440C3FFC6AFAD6FF58EA35C1568600805D
:102B20000080008000800080AF9CA2D5A6F5BD2D5E
:102B3000657FFF7FFF7FFF7FFF7FFF7FFF7F8159E3
:102B4000732EE80713FF73E386CC68CC2BC67CCDCD
:102B5000ECC9AECDF4F8A918352B1237A42C2439C2
:102B60006F2FF00940F844F072FCA30133EB68BE0C
:102B700026820080008000800080008032AA36E437
:102B800083005348FF7FFF7FFF7FFF7FFF7FFF7F33
:102B9000FF7FB34FF428FB125A12C9F570D32CD122
:102BA000EDBED6C843CAD9D2A904601B71348A3C91
:102BB000A734B141B81E15F594E6A2E3B4F45AF572
:102BC000FBDD3CB800800080008000800080008039
:102BD00046AC35E846FC6A36FF7FFF7FFF7FFF7F0C
:102BE000FF7FFF7F89716B4E21239605C2069CEE05
:102BF0009DE24DD9F1D0F2CA14C4AFD1A1EDEA0CD7
:102C0000F422BE300934F9493C3EAB10E4F587E9C3
:102C10001DEAC1E7EAD8C1AB0080008000800080D7
:102C200000800080B4A9CAF10307EE260B6EFF7F77
:102C3000FF7FFF7FFF7FFF7FFF7F1C6EFD47861DAD
:102C40000B03C8E719C4ABC6A1C047C371C91AD4E6
:102C500061FC631DB231EB39CD36D83B9532DE07CE
:102C600040EBFAE891EBA3ECFEE529C1D38C0080A0
:102C700000800080008000806B9E2AEC630E6B1742
:102C8000BD55FF7FFF7FFF7FFF7FFF7FFF7FFF7FC0
:102C9000A56AC042F8055BEB3CC51FB25FBF70BAC6
:102CA00072CCFBDEED018625B6263C2A1D2E162FA2
:102CB0001232DC1070E25ADC81ED2FF351F764DB45
:102CC000CDA4008000800080008000800080B7CB11
:102CD000CC26262B133CE468FF7FFF7FFF7FFF7F1E
:102CE000FF7FFF7FFF7F346C4A36C2FEA0E48EB4C4
:102CF000F3B410BAAEBB3FD561E7ED0E0F29E1305A
:102D000054372535D437D82D2204C1E023E775EF99
:102D1000DFF7EAF228C4D88B0080008000800080B2
:102D20000080039047F02F2F3B36CD45BA69FF7FD7
:102D3000FF7FFF7FFF7FFF7FFF7F3F76CD58F72329
:102D400055E8BFCD0BB9FDBB8EC820D2E5ECEC0534
:102D5000C51BEC2DEF290927BB21211EB715DCFC73
:102D600087F268FBDA0AAB0896F29ABF008000800F
:102D70000080008000800080EEB274081040733341
:102D8000242C1F54FF7FFF7FFF7FFF7FFF7FFF7F8C
:102D90000F7BCC4FB70169D4D8C71DAD6FBC2FD006
:102DA0002EE21402AD1B5738F93C802FB22B0B17C3
:102DB000820C7A0BEBE8F0D3A8E6ADFA8302D6F7E3
:102DC00037CD4690008000800080008000807FAC7E
:102DD000B8FDAD44944A332C193E366AFF7FFF7F1D
:102DE000FF7FFF7FFF7FFF7F8C7E67351CE70BCE69
:102DF0003AB36AB6E3CA7DDCB7FC531921331841F4
:102E000041323E24F516A8003A0A0500DAE2CDE088
:102E1000F1EB09FD72FCF2E544AB0080008000801C
:102E200000800080158B78DCBA1DA1532C43F22959
:102E3000FF479E7AFF7FFF7FFF7FFF7FFF7FFF7F40
:102E4000B15D6300DCCB54C38CAF16CFC1D9FEECAF
:102E50007D125E28C6388432A71F9D1309051CF613
:102E60005600B4F252DAB8E46DF356FF5BFA5ADA60
:102E70008D9D0080008000800080008057AA00ECBB
:102E8000352D5F55B435FD25CA449E7BFF7FFF7FFE
:102E9000FF7FFF7FFF7FFF7F445B92F591CA56C2A1
:102EA0007AB271CFBDDBB2F42616982D4A3CE22DE2
:102EB00034148E0CC8F985F10507F2ED20D7B2E085
:102EC000A8F9910B40FAB8D4C69100800080008028
:102ED000008000808FA870E7192FCB52BA3A1614E1
:102EE0002E2C5568FF7FFF7FFF7FFF7FFF7FFF7FD7
:102EF0002E5BCCFF5CBF8BB32BAB6BC666E2DCFA00
:102F0000331FA73350382830011E27127901FDF0F6
:102F1000E20597FA45DE78DCB8E471F703F47CD279
:102F2000B08F00800080008000800080DEB6AEE8B8
:102F30001216EA42DD54C9265723BF5BFF7FFF7F8D
:102F4000FF7FFF7FFF7FFF7F0F6C621888BD05AE9C
:102F5000B6A889BA3CDBBDF0B210AE33CC42AE3B72
:102F6000F4270316501164FD9B064C0D66F4FEDF3A
:102F7000D9D290E7BFEFF7DF4BB20080008000802E
:102F800000800080D59EC8CB87049C2BCC63F86959
:102F9000412322207F46FF7FFF7FFF7FFF7FFF7F50
:102FA000E3797B420BE80E92639536A2F1BB47F2C0
:102FB000D90F534054592E54AF36D70EB1FFE1FB11
:102FC00027F74F07032358046AE53CD23CC6CAD80A
:102FD00004C766980080008000800080B48E7BBCAF
:102FE00092E1A6085D26543E0B76495B7811B21B30
:102FF0002B5AFF7FFF7FFF7FCB763458E4478A212F
:1030000070C70F8E62A847C283FB7F2B2336EA4F1F
:10301000C3513E3E771E64F6F4ED52EE0BEE3D04D6
:10302000D41481FBAAD1DAB138ACBBCA17D3D3BA56
:1030300079860080008000807488DE9B51C294EB0A
:103040005B1A7E3EAE69FF7F985BBF1F4E342A5EDF
:103050004A79FF7FD77C4D534352CB549D207CC08F
:103060007EB044C86DD16DFB85144B24DA474455BE
:103070001A40BB2288076CF0C3E558DD27E3D1F185
:10308000F8DB33C2BDB429CE26F40DEE88BD008036
:103090000080008000807F848DA235D3BA118051DA
:1030A000186B9273FF7F41673A1285F9DF323B5DFF
:1030B0002A6DA477A05FF04DEB52463147D7ADA201
:1030C0000CC3BDE94D0209255F405C4B20523B36E5
:1030D000EB0AE5EC63DF9AE86BE7B2EDBFFCB6F113
:1030E00065CAF1A0BE9BE0BB92E632E86EBBBF971B
:1030F000F693019D7E9B0A9BB3A5C1CB420D7643FF
:10310000D06045650C78FF7FDF3945ECFC01183C49
:103110000E5C82700873E6593F4F17533F1FB7C5C7
:1031200081B92EDC07EB090BED2F564213495847A6
:10313000B5252EEF0CD606D374CB94CA8FDF1DEBCA
:103140005EE714D76DB869A571BBECEB91F1CBD2FA
:1031500028B7A0A809A0A69E679F3AADAEDC35129D
:10316000FC3E19517663B869C866CA662316BBB5BA
:103170003DC8FB28E4637E73C27DAC69C946E34465
:103180005B2072C484AB16D830FD8918B63BB643B9
:103190003E36E8288E0342D54CBCDDC2A1C663D8BA
:1031A000D1FF74148911B0E956BBBB9B76A117C639
:1031B000CFD8E5D89ACC8DCCA2C975C04DBD11B57C
:1031C0005FB4CCD6DF10823B7C5AD15CF05A4250BF
:1031D0003B3B821AF5C64F9A4CD03136556FE97792
:1031E000097EF171CA568941280FFFBFA6B7A2F820
:1031F00007360B4DA75515464116CDF485C9798E76
:103200000080309262C808FCCB2C303F4D31040C5A
:1032100053D6E1A3318D70A5EACA0FE668ECBBE492
:1032200083DEBFCC4DBF24AC59A2F2B7BBE57525F8
:103230002B4D13630A66F35C3E4CAD227EF204C054
:1032400027A626C75F269076FF7FFF7F9E7B675D60
:10325000963BDC0FFDD6C1C4A7F0C12A92533A6257
:1032600061463D0CEDD873ADAE850080E58DDAC0CA
:1032700078F653349D4FF040D71D86F5FCCD63A200
:10328000DC95D2B7DDE9A5FA48E79FC13A9EBB922B
:10329000DD984BA55FB394DF00292E69FF7FFF7F88
:1032A000AF581E30AE1F55094FEC18E451D790D4DB
:1032B000D305AB54FF7FFF7F21744F4B841E39151C
:1032C0002506D3E3D4E4080EB936F84F4558BE3C82
:1032D00094FFE1DA2BC7FD9FE28A6AA32EC86AF346
:1032E000A125BF3F98397D1A87F968CBCAA241ACA6
:1032F0005ECCEFDF8BE034CB1AB2F5AB10B850C721
:10330000C2C2C6C5A9E12013DC45075D0A5773494F
:10331000B83B6F23E919DA0A7BFF04F083DFE7F695
:10332000A22C9766FF7FFF7F1D7938633547AB2559
:103330009EF377D4CEEAA205C71F222EB923AB098C
:1033400046F6CCDC24C28FB77CC04BD542EAF70EE0
:103350000A28442D361AD1FE7CD433A649A5D8B903
:1033600081C698C1D3C042B595A474A933B456BBE5
:10337000F5CD94F908241142D74C294758349A18AE
:1033800064FC75E249DD4CFE2B25A92C4029B33A9B
:103390005362E07EFF7FF56F2A49533473405A48E9
:1033A000FC2AD914C8143018111BC617B1FE7CE0D2
:1033B000ABD2D9D963E0A7CE13CE7CD459E586032E
:1033C000B80479F992E69BD670C74CBB93C12ECE58
:1033D000F5D3FBC972B2E7987F92D1999EB1FFC72E
:1033E00048D98FFA241717378749B03EE329780C5C
:1033F00050FBA2040A1CC42B052FE828201B2823FD
:103400009650FF7FFF7F886E0A65F354C63EFD2706
:10341000EFFF1FDCB9DE0501AD16E61538187F1089
:10342000590246EE27D6B6BBDAAB38C778E27DF74D
:103430005BFFABF4E5E4B9CBFDB4D6A13AAB45C232
:103440001FDCB4E54AD8E6BEA3A9D2ABDBA6E2AC4A
:1034500006BF53EAFB1BF3403150F634AA21D510C6
:10346000A6107915B620D2309F396B4D4A35F81F1A
:103470002831264C9D5DC85ECA65EB619D4F1842A0
:10348000A329A6F5D2D8D3DCCBE753F8C609EA15B1
:103490007613DE0880F893E2C6C677BF3BC92EDB01
:1034A00028F31EFBFBF840E4C1D2BEC321C091C982
:1034B000E1D426E2A5D13BBB08AA05A864A50B97D9
:1034C000AE9F51BC76EB71273B5036514A2E7C168D
:1034D00023167B0D320AD70E66185E22F13A5D5034
:1034E000DC3E932C9C387B44D24C5C60BA622F57F4
:1034F0003C53D44BF42118F781E755E242E402F73C
:103500008B0838043708E80E7408C8F36ADFC5C4AE
:103510003AB26AC99EE680F2A1EF59E0D9D72DDA16
:10352000C4D4E3D2EAD03BC9DEC5BBBB1AA57892AE
:10353000D597899EC09B2BB351EB96130228F52398
:10354000C2198322E631BE454234E42400296C2EA0
:1035500085365E36572A36221834C94FF869116C01
:10356000507056720264894F552C22058BE9DBE5B9
:10357000FCF3B7014905BD0A7D0C5B06EEF74BE98C
:1035800074D722C805C950DCDBEA6FEB95EEBCDAD4
:10359000B8C163B884BAA8C4B6D060D631CF2ABE49
:1035A00066AAA1A391A87CA58AA255BF9AE7790D26
:1035B0003B367D48AC2E950B4E11702A2B3A113DAF
:1035C0004228261D2A28793EA94DB635EC1F5A1FE0
:1035D00099371555A05F3561276494647650BC31E6
:1035E000E7F705CBF8C248C60BDA8AED2CF90102E1
:1035F000D50AFE080DFB4CE5A6D95CDBC0DD86EFE5
:103600001B003AFECFEC0BD3AABCD0B1A3B743BD8D
:1036100019CB48E170E7BBD13BBBCEB41CB137B886
:103620006CBBA0B5FCBDF8E9BF0ACF150720571742
:103630002417302BCD38D6274220032B9D26BF2BB5
:10364000373E8F356F2E7053EB7CFF7FFF7FFF7F00
:10365000176D1B3CAE19A9FDF3D500C9B6DC17EEFA
:1036600053059F24E4252C148514620C02E5D5CE65
:1036700021D92FDFF7FB0B183A0B86E761D39CDAD1
:1036800012CB1DB32FA9B8B47FCEAEDC71CA98A7F8
:10369000BD9AD098F59E48AB64C863EDFE1B8C4183
:1036A000A53D041E7E0D010F820D81234420C00D17
:1036B00024170B39CF49F93CC234CF1C5B072514C2
:1036C000792811271636814CC24E784FBE50F333FD
:1036D0001A04ACE9B9D7A9C7B6DD1AF618F07CFB15
:1036E0008D070413780C5BFFAEF0BFDA30EFF30404
:1036F00013062AFF88ECE1CD3FB9AEBB6BB965B0CC
:103700004BC5C1D4DBCAF3CE50C643AA72979F9E65
:103710003BA855AB77B848C66CD60ADE6EE88F0D6D
:10372000F7240D322C3BFF326631402E5E38CA360C
:103730008027D0382052BA5A21615C6EFF7FFF7F0C
:10374000FF7FFF7FB650CF27AB1712FA16E557E879
:103750004DF3CA06E219261EE01AB10D34019CE7AA
:1037600038D072DF57EE21F47BF35CEED0E73ED326
:10377000E8C4CCC284B427A61CC0CBD4B9D23EC501
:10378000FCB1B19F98857D98FAACA9B24BD5F105F3
:10379000E2335A4D283F10171F040EF8CBFCF40EED
:1037A00051147318163015542140DA17A90401FB7F
:1037B0000E0A1B210C3C89419126DB1A7928722ABA
:1037C0002B24DF2B9F25371E16204912FAFB91DE92
:1037D0005FCEEBD95DF29FFE8101E014D516D6FFD6
:1037E0008CEAA2DD60DF70E8F8F16DED4AE47BD78A
:1037F00020CB49CFBDC804C136C34ACB2FCA0FC5A1
:103800009BC9E2BB0DA3DF98B3B455BA32B2A1CBCA
:10381000FDD653D584CD32CDE0DEEA0D6D38E04AD9
:103820000D45263A6C4F2F59E0509A4C2751F23EE5
:10383000435327799877FF7FFF7FFF7FFF7F8E7746
:10384000E55D1B21F80CA109CEF5C2F14316BB21A1
:103850004117D8122AFAF9EBC3E008DAFBDC79E564
:10386000F1E93BF38405CAEB98CE08C6EABD9CB8E3
:1038700077B8D1BB22C1BACD48D155C17F92008063
:1038800000807E962FBE9FE3A51387494F5F565D4C
:10389000B951831609E9D4FA4810B3175D2D0439DC
:1038A0000E27011DE934BD2EF2F492D91BF8DB2856
:1038B0005945064E9D2D23F577EF8F134A1CA60818
:1038C0005209AC26E440513550162EF132D3F3DBC9
:1038D000F6F2EAF100F2B6058F0D6A0E370175E1D6
:1038E00011D60FDF70E12EE43EE67BEA37E797D989
:1038F000EEDBDED9ABDA49DD98DC6BCC0DBEC1BEA8
:10390000CBA4C7923E9499A2EFB0A6C039D939DFB3
:103910005AD48FBE4ABE5BDD1CFD550AC616A73BB6
:10392000A44D5D4EDB64B156E5499F69535DB341DB
:10393000664D7972FF7FFF7FFF7FFF7FFF7FB95E5C
:103940006D378CEB36CA8CCFAADED208953922426D
:10395000972AAB1850FBEAE538CF78DB5AE8ECF051
:10396000930B70F633E9C7C84FB660B0E8966F9511
:10397000DBA0A8CA3AE9FBF01EC48F8E0080178234
:10398000A5A103B8F2E5690BA22C244E8D45FC32AB
:10399000761B9605ABEFE9E148F365137C23AF286E
:1039A0007930A5303E1517FB33F6EDDFEFECB60DA1
:1039B000B51EAB1E200EDB140DEDF7D220F21E005B
:1039C0007D18C03BA742DF3A6C34DD1EC1FB76D8C0
:1039D000D3E1A4F6AAF9F60D2817C40B1A12CF0DDD
:1039E00085ECB4DF93DC8CE371E3D3E120EC2EEAC9
:1039F0002DE82FE6BFE74FE60FEC08EE1FDB10C106
:103A000045A8A3A2CAA10DA4CFBD44C020BC03BF3A
:103A1000F8CE6DE620D004C1F4A88FD0960D122BFD
:103A20004042733BA455053CC336FA2C6044BE7239
:103A3000B870FF7FA56AFF7FFF7FFF7FFF7FFF7F5B
:103A40004C5686315B2FAAF1AEDC38E915E1BE1485
:103A50008E19CE0B23157304FFFDC3F265E681DAE0
:103A600031EB780581FC5DF7F9D9A8C590B9F4AFC1
:103A7000A2B522BC79DEC4E927E4D3E2F4C342A6AE
:103A800050ACF3B20BB854AFA395A7A1E6BFF1EBCE
:103A90005D216D46455E29632D4CBC301B0DD3E383
:103AA0008ED59DF780229C0FF50AAD0F97FA71EA2B
:103AB00065E4B9E598E425009428E042E837141657
:103AC000A4EEFBD625DE51FEA9198631785DDB6BAD
:103AD00056631E2F83FA62DEFBD6E8EDF9FA240462
:103AE000A2F8090A231DF209F7ED30DB9DEA3BF845
:103AF0009709FB0C30EFC3E6E3EDCEE14AD1AFDF2F
:103B0000D6F2CEEFC2E91CDBE5C97AB3D4A8D4B0B3
:103B100062AECBB1C1CDA5F12AFFAFECB0CEA5C24C
:103B200091C3CDCB2CE5E3142235A049E858985D2C
:103B30009451EE2B4830462C343D2667CF72F46CFE
:103B400051513F543849A73362275B0E090C63304B
:103B5000644EE653EF3D17230D15BE0615FD83DFBA
:103B6000C3E75FF7A7044C0BF4FA57EE88D808F4C4
:103B7000E3FA36F17FF090F47B07DA03ECF2E9BF69
:103B8000C4B2EFBB8DCCAEE906F0BCEEF7E0B0D925
:103B900034A998850080FC9579D144E8C8EE05FAEF
:103BA00017F4FBEA641026163E1D6035D83BA72E9D
:103BB0007F1E662BF414940D21F407F16F0D721C17
:103BC000B2311B28381FC718E02DF6269605A4F53C
:103BD0008FF394F9B0E949E271E5610ACA36F24B14
:103BE000264C7B36551D9E0EE61035F52AE43FF532
:103BF0002C06C41FFC1C680138F0D6F2C3ED5BE54F
:103C000037FAEBFBDAFCC6035900EEF574DE7ADC1A
:103C1000D9C953C20FC5E9DA970397FA1BF278DCCA
:103C20007CCB59B60AB572E162EAD3FED31188168D
:103C3000760048C60AAF3BA06AA9ABCD40008A35E2
:103C40005546B24CCB46EA302116121EC3281B1330
:103C50002C13740DCC189C30262C8B2B61102E0B42
:103C6000920F5A0B6316460909199B1BF9069C0F04
:103C7000A5280037AD31FA2435110C05C2F059E002
:103C80005FE29CE098DD99F2E6FC43FBA206CE04DD
:103C900021027DFEDCFA5CF506E70FECD3EFA7F01E
:103CA00022EB14CBAAC297CCE0D7ABF4B50926E738
:103CB000EFBCE7BA22C257D96AFF841F822092174D
:103CC0003C03C2C9379E438FA99760D13E09ED37A7
:103CD000E0577553064D4F3773256A01C5F8ED1649
:103CE000102652456E2CEB0ABE0181D90DD923D185
:103CF000F1D673F85DFDE528682BA12492295E0EAC
:103D0000C624402E402E0638212A42205C10E7FEB1
:103D10001AE94BD38EDC0BE8C8016E189C0FD20752
:103D2000EC0555FD21FC6B0FF5FC5C014A0D73FFA2
:103D300040FADAE84EE989DC81D26ACAB3C877D39F
:103D4000E9E16403C00600FA57FB57FC6D096905F9
:103D5000B7F504035203B40085E56DB0F89928B0B7
:103D600090DACB11C12B982DF053D753265BBE436D
:103D7000790F4C0C8A07840A640A110EEAF2B3EA3E
:103D800089E97DD021D3F8DDEBE0A2EBDBFF2FEC5E
:103D90005BFFD90F9715242C3E2F402F6E1F7031DB
:103DA000231D6B044DF485DF41EE80FA9210400E26
:103DB0001510D60B6309750B75FD8A07F40EE81C08
:103DC000D627581ABC01D8EF1BDFD7E184FD3ED9B6
:103DD00035C185D6B2D2DDF17FFE6BFB2315CE193E
:103DE000E4264C28900A48F55BEBE6EF0EF85AE91A
:103DF0007CD23CCD0BE1A4FE431B6C20DA1E073BBA
:103E00001C40DB3576282E0C0D09551F7119B3F0B7
:103E1000E5D126B8DABF18D757CCACBBD7BE6AD825
:103E200002F2D70863000EF7FA1032167C1D531207
:103E3000F30B41254F29C52E801374F4BBEA45E4EA
:103E40002B03DF109A0496129510200610114AFFDA
:103E5000DCFC5F030103F9158B18991BBD0AABFC51
:103E600007F916EA840BE4038FD113E9E8ED3EEE7F
:103E700096FF63E7B5FDA2FE5BFA21253629412CAA
:103E8000CC0BDEF23E0145FF9DF8DBE5D4DE92D29D
:103E9000DEDF47001D12B4297E28A530B636D126B4
:103EA000BE155607420CEA0DED0F4D0755E755C0FC
:103EB000AE99008000804A88F0ACEADDE2F6720339
:103EC0008AFA1BF2EBFC11F934F9C302FEFFC712A8
:103ED0000E255F18B8263827F21B1621990E790D8A
:103EE0001F122F0FEA212A211311F10494F9D30490
:103EF000A109DC160E1FBC177119D10C510C02055B
:103F00002125B21CC1DF51F1FAD3E5D19AE90FE6C0
:103F1000D215681B521684127B141A1081017B0E75
:103F20008B184940CA3D1E1D9DF6CBB75BA29FA6CC
:103F3000A6BE66EF3628254B965C024A1B29DE0694
:103F400084F02DF5B8E495F6AF0061FC95EE18C14C
:103F500024990080A388F89F0FCAAAEB6EFD2BF569
:103F60006EE808E6ABC636D05EDE86020116CF0EDE
:103F7000CC1AE815A125391DFF2551229E2337377C
:103F80006028EF30760D1A0BBA17AD0981104C0579
:103F90000B09640A2A0E62137D04FCFB1A0B6911DB
:103FA0001C162D0FA412561B71F9C9F61CF611F838
:103FB00089FCC2FD12108404F6062C13592223300A
:103FC0008B1E49198B118110490B15E995D5ABCD85
:103FD00051D792EDFC075C1756349642BE3E6838C6
:103FE000C6105504DEF3C7FD61FC13E9FBF2E7DB05
:103FF000B2E7CEE325BDBFAD7E9D67A84FD2D8E323
:104000009AE1E8DE81D277DFECE2CDD15FCF42E307
:10401000BCFCC21119229A090E0CC00D7612772B26
:104020007B1BB32DCC210F28BC39C20C0316EB0926
:1040300004FEB8119CFCE2F6DB0D8E11000EAE17EB
:104040009106420B7112DFF71D065002A7F19B0586
:10405000ED01C7F87D21442B2BF5DE006BFDF5E06B
:104060001CFBEFF22F0653111C10081676006B167E
:104070006110A21A5A2DE2181A1FD017D50367F142
:1040800043D91DD50AECBBEA700B4E20E314FB3B71
:10409000522B971C42190D03E01976202912580C57
:1040A0008BE8E9C182A7008052978DB1FAB961E22D
:1040B000F8E34FE54CEB8FE5FCE1D7E6E0DE78E492
:1040C000B6EA99E51CFB31F8110C881CBF09200EDB
:1040D00087048603E527F62F3237CA3C511A041E9F
:1040E00033184AFA82EBEBE88DED2603C31BAA00D6
:1040F000FC084D0143FA460AF7FA1D0CC903FC1CE3
:10410000571DEB01300921E703FCA8FAFCF57509FE
:10411000D5E2F6E4D1F22103440C41035017AC146C
:10412000061E751DF1F91510D60CDA027702D2ECD5
:1041300058043D05C331904E0023230900EDDBF9FF
:10414000B9087002BFF0F4F38F1436284B31A02E5B
:10415000682267146F1B0802ACE404CF33B51EBDA0
:10416000BDAED8A789B240AF6BC64FEDFFF560FA80
:1041700076F311D67BD155CE43CB77DFFAE853F8EF
:104180003A17CE126314540127E40BF61CFBA41853
:10419000302534158728FC31002E802F032A4A2130
:1041A000A006FDE973EA7BD8C4E909F626E1C0FF61
:1041B0007A0B3003C8153325CB1C9921F811F00375
:1041C0002E131805B8FDE507F51127058C053401F8
:1041D000C5FAED14FA0F69F7EEE966EF11ECB9FADA
:1041E000BD182123352D64199E013DFDEFECD6E36A
:1041F000E1F5D0FB18FEBE1C951EEA21BF25C302C7
:104200005F04E7E952D98DEC9FFDF41CE425E947F2
:10421000F63AFA31C3230D08C71896F801F635EEC1
:1042200013DDD6DED3D408CBD7CC94D965D141E801
:104230003EED3EE712E7D5E123EE02F07BF3E7E443
:1042400079DEAFD16BD95BECD7EDC2FEE300D428A9
:104250007E2858209327B415B22A352D2C4352308E
:10426000FB0CD80C9AF5ABE868E503ED28EE13FFDC
:10427000F7FB32FCC5FFFBF21BF2CBDB06F0DB00E9
:104280007703441114076D01EE0345FAFAE883023F
:1042900006100F0F781292FAEE03DD13D40D511AA7
:1042A000811E2602BC01CAF8A5E45305F305580C8B
:1042B000B4239F125209C3FB4FEB8BF483FBCF0750
:1042C000EA28740FF8048C13BE00A61708164D0ECA
:1042D000DD1E9612C3F3C2E3D3DB29D6D7F3430E18
:1042E000EF3B265A68460F365A12CAEB93DD9DCE35
:1042F000D2C555E1D6F2F8F728FA70E2B9D746D31D
:1043000087DED3F7E1FB8A077320100ADADB6CD073
:1043100078C009C7ADE513DCEEE2D6FF89F038FFBF
:1043200058117DF0CBFBACFF67FFEB171E0246E296
:1043300000F3E601ADF4FB0CA5144E13C132513B62
:10434000D11FBB0033E476DD610164F6F9019320EF
:10435000A2119C10C2F725E53CE038EB2FF442F1A6
:104360002808BF049A09F1195EFA64F5C2048EFEAA
:10437000ED29F326CAF946FC93E276E5B10648F347
:104380003AFDAC1939009812CF0D36F8331F2F0EB5
:10439000A713E918EEEF8BF570FB62F048014A1A9B
:1043A00088153A178A1AFD207119DDF89FFC42F032
:1043B0002EE2D7F45900C027B452414C47429B2EFD
:1043C0004BF6AFEB1BE416D672FB4FF343EE12082D
:1043D0000CEB13DCB1E535DB26DB69DC9BD772E146
:1043E00025EB17EFCFFA3FEFC4D4AECEA1D32BD439
:1043F000D2D3F9E5E3F2930B0221230215F53AF744
:10440000DCE04FEC6E0CA31BBE30E946B23DA528A4
:10441000272063F33FEAE300AEF6B2157E0109D62A
:1044200051DD0AD2D8DD28FB3908B209C316390F8D
:10443000040A041145EC42EAFAFC020BFE0898F764
:104440002AF975FD8A06CCFE6218601B97022D16AC
:1044500010044301D6142802C704F517291151127C
:10446000BF1189F65DFD0B0481FC3B14BC1C960654
:10447000CCFF790EA602B2098E1F791657238D2321
:104480005E1D911414FB11F30AF3070DE2118B1159
:104490001615A403B209D709BD1248239B2D892BF9
:1044A000E72CF32CB7020FE0DDC9DEC500D0DBDE60
:1044B000B5E85AF00A0604F85EE09DC796C325DE0B
:1044C000CFE56CFEDDFF5CEF55EE81DB5BD7B1D550
:1044D000ECD747E39CFA14FA14F25CFBA7DC9303D5
:1044E0004522720F3539E32A34019D1A4A30D0250E
:1044F00017372727CF15353820F987D5FEE69EC414
:10450000A5F120077CFA0B18BA041F0AEC1382E904
:1045100099D95BE588F5E411950459E6AF086C007C
:1045200070E768F3B8DC00FAD819BF10AA29171D84
:104530001805061671FF88EDB3033DFF5114D02412
:10454000000EB407AAF1F2E5C2F6D2FA5907E62B3B
:104550001E3087280028E20C75FC6AEDBEE660F18B
:1045600064FC5C03421A2719F303951F25FF9EFB89
:10457000251338E21DF9E9FED2D19AE1E0F280F28A
:104580008F23962EBD13D935161A4FF48513FAEEE4
:10459000A7D06DE763D3BAE9D30A26E7FCF4FE009F
:1045A000E6DAA6E87EEDA9E160F973F0E8DE43E51E
:1045B000F6E5BDE4E7F7F8FEC7EB6FED99E008E735
:1045C00080FA36F30C05B71CA020E609ECFE49F191
:1045D00079F23B07C0FEFFFD9FF640FA041311225B
:1045E0002F0184FED80513E4B7087F09D8F7EB0242
:1045F000BDF68BF666F62CE5B5E8CA0E5509B5177B
:10460000821A94FA4B03C7FFFDEF59ED9CFB5DF84E
:10461000750387136A13830E6905E70CDE07A9117A
:10462000260F770111FF3FFD1FF7B3FE2F1C441229
:104630008719A31BC816C81C34074D07D008B30B35
:10464000430F340DDEF978F0B5EFCFE682F050DCA1
:10465000C8F45B1A770FA01946035CE04FF203F42D
:1046600035FEC4244F0F7318EB1EA7F8F9084EF857
:10467000C6E7F701500289FC4AF475E78CDE30E2A8
:1046800038E31DE356EAEBEE89FE4A068BFCFCF5A7
:1046900054F3D8E93FE88DE693E9D9F313F0F9F341
:1046A00019E609DDDFE88DEE2CFE4108C70DC013C9
:1046B000CD1639140307E903C601D6F9CD0EA211B0
:1046C000AE05CC0BD304A403BAFD5FFD01F46FF279
:1046D000810A79060B1DCA222DFCE7FEB1F9DBEC3D
:1046E0007FFC37FCED01621896133E013A04E6FAAE
:1046F0009CEDED076A07F7084125500BEA07741C8B
:104700008BFD0FF4190220FA75041519FB0B9C1090
:1047100086245A0B4301E70622FF100BE10341F602
:10472000560579074DFA97F35FE957ED8BEE72E680
:104730001B01360EEC2099297A094BFC35E2EEDBA1
:1047400025E641E86CEAE7F0040CB317E41065FFD6
:104750009A039CF594F92D097BF36E125B0DE1FC35
:10476000EE12A4FE32EFEF010705D30B89201003F0
:10477000F406920EB2EC33F02EEF9EF3CFFF5EF311
:10478000ACEB34FA7EFA6AF83DFD64F083F46FF91D
:1047900088FAD7FB18E900D118CFE3DF84E392F55C
:1047A00013059607EB16A50DF0FC4BEFD0DBD9DE19
:1047B000AFF3F5F51D0DD02B391B1C254310A6EECC
:1047C00015F55BEAC4F79908481BF61FDA184C0B7D
:1047D0002BF5B7F488ED6AF87DFDB1FE8B0F7E0FE7
:1047E000950309F6DBF10FF448EE9EF27100B0FD7F
:1047F0004D102809DDF8650CE8FB60FA6404DDF073
:1048000040FF4F0FECF7930BEB0AD3F17C158F08A9
:10481000E4FD720971F1DAF6F303AE0516069708A6
:10482000060A0D09910657FC08F597F5ABED0FEB5D
:104830009A04900AA60FC51A7406E403F0FC74E506
:104840007CF45A04E9FD410AAD153B05B9F92EFF88
:1048500072F474F4F1050DFA8005BD0A6DF4BFFC25
:104860006BFBACE9AFF393FD75E9730AE10ED6F18A
:10487000A41067F06ADF97FC74EC7BF884123B06A7
:10488000330CBE0F74F47DFE70F59CDF29EFC3F48A
:104890006BFB5D0BAC128B0FAA0CEEF63FEF98F69C
:1048A0002BF031F884FE3A0B420C7E0DE80F24F118
:1048B00007F2BB05F400C9056DFB5BE50A08DB13D5
:1048C000BCFBF40771F15AE85FFC28ECEFFF4110E4
:1048D000E6FA6F089914AFFA1EFB35FEABEDE2FF66
:1048E0004CF89AF0430010F6D3FCE807280789112A
:1048F0009E1BF90D9A100109D4E61CEE22F0B3F7C5
:10490000070C75091F19AF223A12B708BF04D8FD6A
:1049100042FEF2018206480E30107A093C0289FC00
:10492000F4F24EF17B05AA1A981FB318E20453F76C
:1049300076EA1AE3F0E8A5F3D504FC0EFA172E0C7C
:104940000603940061FCE7FF77F4D0F5D7F563F92F
:10495000890486099F0910038D029AF6A7F108F3CE
:10496000B1F85708550B9A046C05690B4C001100FF
:10497000FDFEABF441FDA0FF83083702D4F39CFB9E
:10498000AAFA2102620476069F10140F5416F91A2F
:10499000CC056CF721FC17F54FF904FD71F79BFF6F
:1049A0005B07B6065C08370A4D01650763075DFEC5
:1049B00016003FFED4001606DF0A67052BFB3EFB00
:1049C000560018FE08FA7AF62AF91F0ADD0B63076B
:1049D000410805085D060CFE96FF3202F0F656F817
:1049E00091F960F3420D1711610ACC1284FCBDFFEE
:1049F00063074DFAB5FB1BFAC3F90008820D27FEC9
:104A00000001B906CF002C00DCF59DF7EAFF0A088B
:104A1000D21046025DFF39009EF941F50BEFE2F836
:104A200044034E0CF90862041E083702AF00DFF59C
:104A300020EC87F858048404170890026FF9B50435
:104A400025FF5FF0CFF35CFC1509FD13C3155F0A6A
:104A500085070C07ACF0A4E95CEFF0E7C2F8C507E6
:104A60001804C4179614300314073FFC89F6F700A6
:104A7000EAF8FAF62BFCD4F82802E8FBE5F818FF70
:104A8000E301510DA70DA50CE90AF70885007DFE8D
:104A9000A3FBA3F4050042FE11FF71073605ECFFEE
:104AA000950AB80BD3FC9606A5F8B7EDA4FE85F9D8
:104AB0006BF5DB005E00A0FFB1120F0D6307080F5E
:104AC0003900D1FEA4045BF82DFC420D6B03A70452
:104AD000460F0A017CFC07FFD5FC790104058A001A
:104AE0006E054307A9FD51FFA4FCE4F682FF7C0399
:104AF000BBFE00015D0416067F0327FF35FE4FF95C
:104B00002DFB8403F30AE608F709F40E42FF37FB96
:104B1000C8FA15F097FB120253FE9805A800D8FDBD
:104B2000E1084E03CD015F0AF8058E0574066CFEA0
:104B3000B3F603F3F9F312F567F816003D0B3D1ACF
:104B4000281DA213F10C5C0314FB43FAE4F0CAEC39
:104B500026FCFA03E20AE5142913E912C412E40957
:104B600067FE71007DFFCDFBE102BAFCA6FBCB0224
:104B700003017E017B054C064108090A750305FF08
:104B8000B1F738F64FFA8BF5FBFE20061400260429
:104B9000640384FE5901EBFBB5FB95026EFEB00485
:104BA00010043AF59EFA35FEEFF9D3FD2D0170049D
:104BB000E7067F034300F1FEF6F851F99FFDD401AB
:104BC0007F09800E75108B0820015DFE32FCA5FA6E
:104BD00097F371F22CFF9D0C250D140E540D2A072E
:104BE0002E0A47066AF973F610F722F90803BC018A
:104BF000C7FD70035FFD6301730B8301D303A2053F
:104C00003FFD9FFE2DF5EFF378F687F1EBFCA40452
:104C10000F08930A4507FF04A5060B0382FD29FE32
:104C200013F7D3FEA204F9F916F829F8F5FB7BFF78
:104C3000F0026802FE015607BE078E0467FEABF65F
:104C4000A3F2ACF74FFA1CFD33FFB6FE1408D707EA
:104C50006F00A8FB1EFA1600C602FA0304FE31F824
:104C60007CFB6FF916F89FFC27FFA205261143096C
:104C70006500F10537FCEDF981FCF7F456003F05BE
:104C8000D8FE8E0462066705EE034CFE9AF781FBA0
:104C9000AA0045FA62FE95FDD4FAAE050405880027
:104CA00053FD14F4A7F762FD64F768FB10FC1AFECD
:104CB00030098C0460FF37FCA5F8ABFDC4FD38F764
:104CC00065F8B6F766FCD009310092FB2103E8FBDA
:104CD000E5FED70298F62FFA3503BC01E307CD02B3
:104CE00044F7CFFA07FEE0FE02FF99FB5C01B10634
:104CF000390238041DFF86F56BFD1701ECFE3A03FF
:104D000099009E005003110084FE62F8D4F864FEFE
:104D1000A9FC58FEDAFD52FB75FD51000301BB00F2
:104D2000630194015C03980467FFCEF7A2F8D2FAFE
:104D3000EBFBFCFC32FAE6013D051702C307D70284
:104D400002FE2802B6FEFCFB82FEF6FF8405DC08AC
:104D50008CFFB7FCD2006EFD25FF4D0230FD24FE16
:104D6000B20704049AFCB6FFB4FF9401A5FF43FA0E
:104D7000FEFFC1031A031A05270067F9D5FDE7FEF8
:104D8000D6F9E6FB04FECEFE3B05540777022D0361
:104D9000A5057304270028FB5AFDAEFE9CFC970175
:104DA000D70273FF04055F04DDFF7002F9001202F1
:104DB000DE0140004D014CFE4D01D900E3FBDE0059
:104DC0000F005DFEB406150382FDBB0042FE40FFEE
:104DD0003E02E801BE01BE00030295037D06B0025B
:104DE00006FC16FFF8FE32019304DDFDF1FE5304CC
:104DF000B8033E071504A1FCE0FF40FF02FEE0FE01
:104E000064FCC7FFDB009C016405A000B6FF8603BD
:104E100023017703ED02C9FC6000C80209FF860385
:104E20000604B1FEF803FA0415FEF8FC00FFA4FE28
:104E3000C000FE010EFFBC02650637036D019FFD39
:104E4000BEFA3FFEBAFC06FC9BFF49FEC4FD020011
:104E50004FFF13FF16004EFEC7FDCCFF6F0002FF91
:104E600025003FFE8EFC3DFF9BFED7FCD2FB0A00D7
:104E70007C03CD020A0182FFA500340054002A0100
:104E80007BFF96FE0301A2FF89FEBBFF85FFA60103
:104E900056007DFE7DFE00000000000000000000C6
:104EA0000000000000000000000000000000000002
:104EB00000000000000000000000000000000000F2
:104EC00000000000000000000000000000000000E2
:104ED00000000000000000000000000000000000D2
:104EE00000000000000000000000000000000000C2
:104EF00000000000000000000000000000000000B2
:104F000000000000000000000000000000000000A1
:104F10000000000000000000000000000000000091
:104F20000000000000000000000000000000000081
:104F30000000000000000000AF1700005B00000050
:04000005080000ED02
:00000001FF
